:100000000C942A000C9447000C9447000C94470071
:100010000C9447000C9447000C9447000C94470044
:100020000C9447000C9447000C9447000C94470034
:100030000C9447000C9447000C9447000C94470024
:100040000C9447000C9447000C9447000C94470014
:100050000C94470011241FBECFE5D4E0DEBFCDBF16
:1000600010E0A0E6B0E0E6E9F8E002C005900D92ED
:10007000A03FB107D9F722E0A0EFB0E001C01D9288
:10008000AC3FB207E1F70E9400020C9449040C94C3
:10009000000080B380958C718093F7001092F60079
:1000A0001092F500E0EFF0E01082118212821382CC
:1000B000148208958435C8F46033B8F4962F969569
:1000C00096959695E82FF0E084E5989FE00DF11D58
:1000D0001124EC5FFE4F677021E030E001C0220F79
:1000E0006A95EAF78081822B80830895CF92DF9210
:1000F000EF92FF920F931F93CF93DF93C82F7B0153
:10010000D5E0D80FF701C1907F0110E000E0D12CBD
:10011000C601002E02C0959587950A94E2F780FFEC
:1001200005C062E1600F8C2F0E945A000F5F1F4FC5
:100130000730110569F7CF5FCD13E4CFDF91CF9181
:100140001F910F91FF90EF90DF90CF9008950F9344
:100150001F93CF93DF93182F110F110FC62FCC0FC2
:10016000CC0F04E00C0FD0E06C2F812F8D0F0E947C
:100170005A00DF5FD430C1F7CF5FC013F4CFDF91F7
:10018000CF911F910F9108956623A9F0C19AC49849
:1001900098E087FF12C0C59AC79A22E02A95F1F726
:1001A00000C0C79822E02A95F1F700C0880F91504F
:1001B00081F7C49A0895C198EACFC598EDCF60E061
:1001C0000C94C4008F929F92AF92BF92CF92DF9215
:1001D000EF92FF920F931F93CF93DF93CDB7DEB7CC
:1001E00062970FB6F894DEBF0FBECDBFE4E0F1E03A
:1001F00088EF91E0DF019C011D9221503040E1F732
:1002000010E060E0812F0E945A006FE2812F0E946F
:100210005A001F5F1435A9F710E0612F80E00E949B
:100220005A00612F83E50E945A001F5F1033A9F71F
:100230008091FA004AE0BE016F5F7F4F90E00E941C
:10024000B10327E0D22EB12C35E0A32EE1E0F0E09F
:10025000EC0FFD1FEB0DF11D0081011158C06AE08C
:10026000809160000E94A7000CEF10E084E0E82E6F
:1002700081E0F82ED80111966C9111978C910E9413
:10028000A7000E5F1F4FE016F106A1F78091F9005D
:10029000882309F469C082E1E5E6F0E0DE01119609
:1002A00001900D928A95E1F7FE0131967F011CE0E5
:1002B000D7016D917D917D01812F0E9476001A5F9B
:1002C0001234B1F780E40E94DF0080E80E94DF0072
:1002D00004E011E061E0F80181918F010E94C40007
:1002E000F2E00C3F1F07B1F762960FB6F894DEBF3D
:1002F0000FBECDBFDF91CF911F910F91FF90EF9077
:10030000DF90CF90BF90AF909F908F900895005353
:100310000A3030F50A9D8001112403541F4F9BEFD2
:10032000C92ECD0CD8018D908D01F12CE12C912C92
:10033000C4010E2C02C0959587950A94E2F780FFC0
:1003400005C062E06E0D8C2D0E945A00BFEFEB1AC3
:10035000FB0AE7E0EE16F10459F7C394CD10E2CFA3
:10036000B394F6E0DF0E72CF8091F800882309F491
:10037000A9CF8AE0E7E7F0E0DE01119601900D9247
:100380008A95E1F7FE0131967F011BE1D7016D915E
:100390007D917D01812F0E9476001A5F1933B1F79C
:1003A00091CFEF92FF920F931F93CF938AE08093A8
:1003B00060001092FB001092FA001092F900109267
:1003C000F80087E090E00E94A6030CEF10E0C1E087
:1003D00083E1E82EF12C0E94A103B7010E941103D2
:1003E0008F5FF8018083C1830E5F1F4FCE5FC930DE
:1003F00091F7CF911F910F91FF90EF900C94E20035
:1004000087B3836B87BBC49AC798C09AC0988FE1A3
:100410009EE40197F1F700C00000C09A81E20E94BB
:10042000DF008FEB0E94DF0084E00E94DF0084E1A8
:100430000E94DF0080E20E94DF008CE00E94DF006B
:10044000E4E0F1E088EF91E0DF019C011D92215092
:100450003040E1F781B3837E81BB82B38C6182BB84
:1004600083E083BF0E9449000E94D101C0E000E008
:10047000912C86E8A82E80E0B82E882483947724D7
:10048000739494E0E92E91E0F92E23E1C22ED12C51
:1004900082996BC014E0839B1860849B1061C095A7
:1004A000C123D091F900DD2329F0911003C00E94EF
:1004B000490000E09D2ED2E13C2F3071632E8C2F3D
:1004C0008470582EC87020B320952C714091F5008F
:1004D0008091F7005091F600A1E8B0E0E0EFF0E085
:1004E0009D91692F622344244394611101C0412CE2
:1004F00071E0392F382309F470E0471238C01082B8
:100500003196AA16BB0661F78093F7005093F60068
:100510004093F5009091F900992309F447C0011127
:100520003AC001E0811100E0AFE1BEE41197F1F7BC
:1005300000C00000D15039F68091F9009091F80088
:10054000892B79F4CCEFD0E089818F5F8983288172
:100550009091600029134CC08A3009F049C0709214
:10056000F9000E94E200C12F93CF10E094CF3081B8
:10057000323040F0108261110BC0392F3095832347
:10058000492BBECF3F5F3083323009F0B9CFF2CF75
:10059000892B592BB5CF1092F600552329F20E94D2
:1005A000D1010E94490000E0912CBECF662039F0B5
:1005B00081E09091F800911180E08093F8008091A3
:1005C000F8008111B1CF552039F080916000823060
:1005D00018F0815080936000CC2309F4A5CF80915E
:1005E0006000833108F0A0CF8F5F809360009CCFC4
:1005F0008B3088F08091FA009091FB0001969093E7
:10060000FB008093FA000E94A103B6010E9411032F
:100610008F5F888389822296EC16FD0609F094CFBD
:10062000A0CF97FB072E16F4009407D077FD09D0D2
:100630000E94250307FC05D03EF4909581959F4FBD
:100640000895709561957F4F0895AA1BBB1B51E1DA
:1006500007C0AA1FBB1FA617B70710F0A61BB70B32
:10066000881F991F5A95A9F780959095BC01CD01D7
:100670000895CF92DF92EF92FF92CF93DF93CDB7A1
:10068000DEB72A970FB6F894DEBF0FBECDBF8987BD
:100690009A87A985BA852D913D914D915C912983C9
:1006A0003A834B835C83232B242B252B41F424E2B8
:1006B00039ED4BE557E029833A834B835C836981AD
:1006C0007A818B819C812DE133EF41E050E00E94E3
:1006D000E60369017A01A7EAB1E49B01AC010E943B
:1006E000050469837A838B839C83ACEEB4EFA70106
:1006F00096010E9413049B01AC0189819A81AB8110
:10070000BC81820F931FA41FB51FB7FF03C00197C1
:10071000A109B048E985FA8580839183A283B383D8
:100720009F772A960FB6F894DEBF0FBECDBFDF913C
:10073000CF91FF90EF90DF90CF9008950E94390302
:10074000089581E690E00E9439030895B0E0A0E0AA
:100750008093610090936200A0936300B093640063
:100760000895BB274A3031F4992322F4BDE29095D5
:1007700081959F4F0C94BD03BB27FB015527AA27EA
:10078000880F991FAA1FA41710F0A41B839550511E
:10079000B9F7A05DAA3308F0A95DA193009779F796
:1007A000B111B1931192CB010C94D603DC01FC0181
:1007B000672F71917723E1F7329704C07C916D9395
:1007C00070836291AE17BF07C8F30895052E97FB9B
:1007D0001EF400940E94FD0357FD07D00E941804E8
:1007E00007FC03D04EF40C94FD03509540953095D2
:1007F00021953F4F4F4F5F4F08959095809570958D
:1008000061957F4F8F4F9F4F08950E943A04A59F97
:10081000900DB49F900DA49F800D911D11240895FB
:10082000B7FF0C9405040E940504821B930B0895E6
:10083000A1E21A2EAA1BBB1BFD010DC0AA1FBB1FE4
:10084000EE1FFF1FA217B307E407F50720F0A21B56
:10085000B30BE40BF50B661F771F881F991F1A94C3
:1008600069F760957095809590959B01AC01BD01ED
:10087000CF010895A29FB001B39FC001A39F700D47
:10088000811D1124911DB29F700D811D1124911D98
:060890000895F894FFCF6B
:100896000A01000000B800B300AE00A9009500A44C
:1008A600009F00A9009A009000B3008B008600A963
:1008B60000040810000026494949323F4040403FA5
:1008C6007F0909090600000000007F091929461F53
:1008D6002040201F3E4141413E7F494949417F0218
:1008E60004027F7E1111117E3E4149497A3E5149EB
:1008F600453E00427F400042615149462141454BF9
:10090600311814127F1027454545393C4A4949306C
:1009160001710905033649494936064949291E0028
:00000001FF
