:100000000C942A000C9447000C9447000C94470071
:100010000C9447000C9447000C9447000C94470044
:100020000C9447000C9447000C9447000C94470034
:100030000C9447000C9447000C9447000C94470024
:100040000C9447000C9447000C9447000C94470014
:100050000C94470011241FBECFE5D4E0DEBFCDBF16
:1000600010E0A0E6B0E0E0EDF8E002C005900D92EF
:10007000A23FB107D9F722E0A2EFB0E001C01D9284
:10008000AC3FB207E1F70E9426020C9466040C9480
:10009000000089B380958C718093F7001092F60070
:1000A0001092F500E2EFF0E01082118212820895C2
:1000B00021E030E001C0220F8A95EAF78091F60036
:1000C000922F909598239093F600982F922381E099
:1000D00009F480E008958435C8F46033B8F4962FAD
:1000E000969596959695E82FF0E084E5989FE00D1B
:1000F000F11D1124EC5FFE4F677021E030E001C07C
:10010000220F6A95EAF78081822B80830895CF922F
:10011000DF92EF92FF920F931F93CF93DF93C82F3D
:100120007B01D5E0D80FF701C1907F0110E000E01E
:10013000D12CC601002E02C0959587950A94E2F74E
:1001400080FF05C062E1600F8C2F0E946B000F5F83
:100150001F4F0730110569F7CF5FCD13E4CFDF9153
:10016000CF911F910F91FF90EF90DF90CF90089566
:100170006623A9F0C19AC49898E087FF12C0C59A77
:10018000C79A22E02A95F1F700C0C79822E02A9585
:10019000F1F700C0880F915081F7C49A0895C19873
:1001A000EACFC598EDCF60E00C94B8008F929F9293
:1001B000AF92BF92CF92DF92EF92FF920F931F9375
:1001C000CF93DF93CDB7DEB762970FB6F894DEBF5B
:1001D0000FBECDBFE4E0F1E088EF91E0DF019C01CC
:1001E0001D9221503040E1F710E060E0812F0E9425
:1001F0006B006FE2812F0E946B001F5F1435A9F71F
:1002000010E0612F80E00E946B00612F83E50E9467
:100210006B001F5F1033A9F78091FA004AE0BE011E
:100220006F5F7F4F90E00E94CE0337E0D32EB12C5A
:1002300045E0A42EE1E0F0E0EC0FFD1FEB0DF11D19
:10024000008101118AC0E0906000EE0CEE0C81E8A4
:10025000C82E80E0D82E98E2F92E10E000E0D601FA
:100260008C9190E0002E02C0959587950A94E2F754
:1002700080FF05C06F2D8E2D800F0E946B000F5FD9
:100280001F4F0430110559F7F394BFEFCB1ADB0A67
:10029000ECE2FE12E2CF0CEF10E0D801CC90CC0CD7
:1002A000CC0C1196DC90DD0CDD0CF12CE12CBD2C7E
:1002B000BF0C6B2D8C2D8E0D0E946B00E394B4E06F
:1002C000EB12F7CFF394FB12F1CF0E5F1F4FE1E07B
:1002D00004301E0711F78091F900882309F46AC0E1
:1002E00082E1E5E6F0E0DE01119601900D928A953B
:1002F000E1F79E012F5F3F4F79011CE0D7016D911F
:100300007D917D01812F0E9487001A5F1234B1F721
:1003100080E40E94D30080E80E94D30004E011E052
:1003200061E0F80181918F010E94B800F2E00C3F7A
:100330001F07B1F762960FB6F894DEBF0FBECDBFB0
:10034000DF91CF911F910F91FF90EF90DF90CF90B1
:10035000BF90AF909F908F90089500530A3030F572
:100360000A9D8001112401541F4F2BEFC22ECD0C8A
:10037000D8018D908D01F12CE12C912CC4010E2C13
:1003800002C0959587950A94E2F780FF05C062E068
:100390006E0D8C2D0E946B00BFEFEB1AFB0AE7E09D
:1003A000EE16F10459F7C394CD10E2CFB394F6E002
:1003B000DF0E40CF8091F800882309F4A9CF8AE0AE
:1003C000E7E7F0E0DE01119601900D928A95E1F7E2
:1003D000FE0131967F011BE1D7016D917D917D0179
:1003E000812F0E9487001A5F1933B1F791CFEF92E6
:1003F000FF920F931F93CF938AE080936000109237
:10040000FB001092FA001092F9001092F80087E0B9
:1004100090E00E94C3030CEF10E0C1E083E1E82EFE
:10042000F12C0E94BE03B7010E942E038F5FF801DA
:100430008083C1830E5F1F4FCE5FC93091F7CF918C
:100440001F910F91FF90EF900C94D60087B3836BB0
:1004500087BBC49AC798C09AC0988FE19EE4019761
:10046000F1F700C00000C09A81E20E94D3008FEB38
:100470000E94D30084E00E94D30084E10E94D30054
:1004800080E20E94D3008CE00E94D300E4E0F1E01F
:1004900088EF91E0DF019C011D9221503040E1F78F
:1004A0008AB3837E8ABB8BB38C618BBB83E083BFB3
:1004B0000E9449000E94F701B12CA12C08E810E02D
:1004C000992493948824839484E0E82E81E0F82E84
:1004D00093E1C92ED12CC091F900CC2329F0A110B1
:1004E00003C00E944900B12CAC2EC2E129B3209573
:1004F0002C715091F5008091F7004091F600A5E82D
:10050000B0E0E2EFF0E09D91692F6223D1E009F4C1
:10051000D0E071E0392F382309F470E0D71336C0EA
:10052000108231960A171B0771F78093F7004093EA
:10053000F6005093F5009091F900992309F445C015
:10054000B11038C0BB24B3948111B12C8FE19EE46B
:100550000197F1F700C00000C15041F68091F90009
:100560009091F800892B79F4CCEFD0E089818F5FEE
:100570008983288190916000291357C08A3009F03F
:1005800054C08092F9000E94D600A5CF308132304D
:1005900040F0108261110BC0392F30958323592B05
:1005A000C0CF3F5F3083323009F0BBCFF2CF892B11
:1005B000492BB7CF1092F600442341F20E94F70175
:1005C0000E944900B12CA12CC1CF84E00E945800A8
:1005D000882329F08091F80089258093F800809184
:1005E000F800882339F082E00E94580083E00E94DE
:1005F0005800ACCF82E00E945800882339F08091E7
:100600006000823018F081508093600083E00E9487
:100610005800882309F49ACF80916000833108F054
:1006200095CF8F5F8093600091CF8B3088F0809161
:10063000FA009091FB0001969093FB008093FA00E2
:100640000E94BE03B6010E942E038F5F88839982A9
:100650002296EC16FD0609F089CF95CF97FB072E61
:1006600016F4009407D077FD09D00E94420307FCDE
:1006700005D03EF4909581959F4F089570956195B2
:100680007F4F0895AA1BBB1B51E107C0AA1FBB1FC8
:10069000A617B70710F0A61BB70B881F991F5A950E
:1006A000A9F780959095BC01CD010895CF92DF9276
:1006B000EF92FF92CF93DF93CDB7DEB72A970FB6B5
:1006C000F894DEBF0FBECDBF89879A87A985BA850A
:1006D0002D913D914D915C9129833A834B835C83AD
:1006E000232B242B252B41F424E239ED4BE557E055
:1006F00029833A834B835C8369817A818B819C81D6
:100700002DE133EF41E050E00E94030469017A01DA
:10071000A7EAB1E49B01AC010E94220469837A83B9
:100720008B839C83ACEEB4EFA70196010E9430044A
:100730009B01AC0189819A81AB81BC81820F931F9F
:10074000A41FB51FB7FF03C00197A109B048E985F1
:10075000FA8580839183A283B3839F772A960FB60D
:10076000F894DEBF0FBECDBFDF91CF91FF90EF9029
:10077000DF90CF9008950E945603089581E690E09F
:100780000E9456030895B0E0A0E08093610090932A
:100790006200A0936300B09364000895BB274A30C1
:1007A00031F4992322F4BDE2909581959F4F0C94EA
:1007B000DA03BB27FB015527AA27880F991FAA1F19
:1007C000A41710F0A41B83955051B9F7A05DAA336C
:1007D00008F0A95DA193009779F7B111B193119237
:1007E000CB010C94F303DC01FC01672F719177239B
:1007F000E1F7329704C07C916D9370836291AE17DC
:10080000BF07C8F30895052E97FB1EF400940E94BD
:100810001A0457FD07D00E94350407FC03D04EF49C
:100820000C941A0450954095309521953F4F4F4FA9
:100830005F4F089590958095709561957F4F8F4F8C
:100840009F4F08950E945704A59F900DB49F900D4F
:10085000A49F800D911D11240895B7FF0C942204CC
:100860000E942204821B930B0895A1E21A2EAA1B58
:10087000BB1BFD010DC0AA1FBB1FEE1FFF1FA21750
:10088000B307E407F50720F0A21BB30BE40BF50B4D
:10089000661F771F881F991F1A9469F760957095D6
:1008A000809590959B01AC01BD01CF010895A29F59
:1008B000B001B39FC001A39F700D811D1124911D34
:1008C000B29F700D811D1124911D0895F894FFCFE2
:1008D0000A01000000BA00B500B000AB009700A606
:1008E00000A100AB009C009200B5008D008800AB19
:1008F00000060F060904081026494949323F4040C6
:10090000403F7F0909090600000000007F091929FE
:10091000461F2040201F3E4141413E7F49494941F9
:100920007F0204027F7E1111117E3E4149497A3EC9
:100930005149453E00427F400042615149462141B4
:10094000454B311814127F1027454545393C4A491B
:100950004930017109050336494949360649492993
:020960001E0077
:00000001FF
