:100000000C942A000C943C000C943C000C943C0092
:100010000C943C000C943C000C943C000C943C0070
:100020000C943C000C943C000C943C000C943C0060
:100030000C943C000C943C000C943C000C943C0050
:100040000C943C000C943C000C943C000C943C0040
:100050000C943C0011241FBECFE5D4E0DEBFCDBF21
:1000600022E0A0E6B0E001C01D92A835B207E1F79A
:100070000E945C000C94CF000C9400006623A9F051
:10008000C19AC49898E087FF12C0C59AC79A22E027
:100090002A95F1F700C0C79822E02A95F1F700C031
:1000A000880F915081F7C49A0895C198EACFC598F6
:1000B000EDCF60E00C943E0087B3836B87BBC49A9E
:1000C000C798C09AC0988FE19EE40197F1F700C0ED
:1000D0000000C09A81E20E9459008FEB0E945900F3
:1000E00084E00E94590084E10E94590080E20E944D
:1000F00059008CE00E945900E0E6F0E088EF91E0C2
:10010000DF019C011D9221503040E1F7EF0144E0F6
:1001100052E081919F01215031098160D9018C9376
:10012000DA018D91AD019D01215031098068D9011D
:100130008C93B0E0E43BFB0761F780E034E561E0DD
:1001400070E0E82FE695E695E695E39FF00111242F
:10015000982F9770AB0101C0440F9A95EAF7DF0121
:10016000A05ABF4F2C91242B2C93ED54FF4F90811C
:10017000942B90838F5F803321F780E40E94590095
:1001800080E80E94590008E512E061E089910E9430
:100190003E000C171D07C9F790E080E00895F89421
:0201A000FFCF8F
:00000001FF
