:100000000C9427020C9444020C9444020C94440275
:100010000C9444020C9444020C9444020C94440248
:100020000C9444020C9444020C9444020C94440238
:100030000C9444020C9444020C9444020C94440228
:100040000C9444020C9444020C9444020C94440218
:100050000C944402010101010101010101010101AE
:100060000101010101010101010100000000000086
:100070000000000000020202020200000000010075
:10008000000404040000000000000202020202005A
:10009000050000010000040004000001010000024E
:1000A0000202060200000000010000040404000037
:1000B000010100000000000000000000000100003D
:1000C0000000000000000000000000000000000030
:1000D000000001000000000000000000050000001A
:1000E0000101010100000001000202020200000003
:1000F00000000000000100000100000001000202F9
:1001000002020000000000000000010000010000E9
:1001100000010002020602000000000000000001D1
:1001200001010100000001000000000000000000CB
:1001300000000000000000000000000101010101BA
:1001400001010100000001010101010101010101A2
:10015000010101010101010101010101010101018F
:10016000010101010100000000000000000000008A
:100170000000000000000000000100000303030372
:10018000030300000002020202020200000001005C
:100190000003030303030300000002020202020241
:1001A0000005000100000303030303030000000235
:1001B0000206020202000000010000000000000030
:1001C000000000000000000000000000000100002E
:1001D000000000000101010101000000040404000E
:1001E0000000010000020202000100000001000006
:1001F00000040004000000010000020602000100EB
:1002000005000100000004040400000001000002D9
:1002100002020001000000010000000000000000D8
:1002200000010000000000000101000001000000CA
:1002300000000000000001010101010101010100B5
:1002400000000101010101010101010101010101A0
:100250000101010100000001010101010101010191
:10026000010100000000000000000000000000008C
:100270000000000000000100020202020200000073
:10028000000001010101000000000001000206025F
:100290000202000000050001000001000000000053
:1002A0000100020202020200000000000100000141
:1002B000000000000001000000000000000000003D
:1002C0000001010001000000000001000000030324
:1002D0000303030000000000000100000000000113
:1002E00000000003030303030000000000000100FE
:1002F00000000000010000000303030303000000EE
:1003000000020202020200000001000000000000E2
:1003100000000000000002020602020000000100CE
:1003200000000000000000000000000000000000CD
:1003300000000001010101010101010101010101B0
:10034000010101010101010101010101010101019D
:100350000000000101010101010101010100000093
:10036000000000000000000000000000000000008D
:100370000001000000000101010101010000000274
:100380000202020200000100000000010000000063
:10039000010000000202060202000001000000004D
:1003A000010005000001000000020202020200003C
:1003B000010000000001000000000100000000003A
:1003C0000000000000010000000001010000010128
:1003D000000003030303030300000100000000000A
:1003E00000000000000000030303030303000001FA
:1003F00000000404040000000000000003030303E5
:1004000003030000010000040004000000000000DD
:1004100000000000000000000001000004040400CF
:1004200000000000000000000000000000000101CA
:1004300001010101010101010101010101010101AC
:100440000101010105015007023C09022D001124A0
:100450001FBECFE5D4E0DEBFCDBF10E0A0E6B0E028
:10046000E2E8F1E102C005900D92A636B107D9F796
:1004700022E0A6E6B0E001C01D92AA37B207E1F77C
:100480000E941C040C94BF080C94000089B3809552
:100490008F7380936E0010926D00E7E6F0E010829B
:1004A00011821282138214821582089580916F0046
:1004B000909170009C013695322F22273795279511
:1004C000822793279C01232F332726952827392716
:1004D000522F4427CA01822793274217530739F422
:1004E00031EE2CEA30936F00209370000895382F7E
:1004F000292FF8CFE3E06E2F0E948B0890937800AD
:100500009E9FB0011124FB01EC5BFB4F8491809313
:100510007600FB01EB5BFB4FE491E09375006A5BB7
:100520007B4FFB016491609374008093770080910E
:100530007900811103C08AE08093790088E080937C
:100540007300109272001092710081E090E090931D
:100550007B0080937A000C94460290917F00980F64
:1005600080917E00680F80918100209180005093DF
:100570007D0040937C0097FF35C0882309F44FC06D
:10058000815094E167FF35C0222351F121506BE087
:10059000322F330F380F343018F5A32FB0E0492F26
:1005A000092E000C550BFA0175E16702E00DF11DF3
:1005B00011247CEF379FE00DF11D1124EC5AFF4F01
:1005C000E491E630E9F4CA018A0F9B1F860F911D62
:1005D00067FD9A9563E070E00E94AB080E947A0282
:1005E00080E00895953174F28111FACF81E090E0B6
:1005F000C9CF6C306CF22111F3CF21E060E0C8CF9D
:10060000E13071F33DEF3E0F333050F380938100C2
:100610002093800090937F0060937E008E2F08953A
:10062000E2E8F0E088EF91E0DF019C011D922150AB
:100630003040E1F708958435D8F46033C8F4962F3C
:10064000969596959695E82FF0E084E5989FE00DB5
:10065000F11D1124677081E090E001C0880F6A9558
:10066000EAF7EE57FF4F2081442319F0822B808355
:10067000089580958223FBCFEF92FF920F931F93F3
:10068000CF93DF93182FC62FF22EF60EE42EE80E2E
:10069000D12F402F6C2F8D2F0E941B03DF5FED1297
:1006A000F8CFCF5FFC12F4CFDF91CF911F910F9164
:1006B000FF90EF9008950F931F93CF93DF93C82F70
:1006C000142F022FD62F643508F0D3E5DC1728F459
:1006D000DF91CF911F910F910895402F612F8C2FA3
:1006E0000E941B03CF5FF2CF90917500809179003B
:1006F000981780F01092790083E08093710082E176
:100700008093720082E090E090937B0080937A0067
:100710000C944602891B8093790008956623A9F002
:10072000C19AC49898E087FF12C0C59AC79A22E080
:100730002A95F1F700C0C79822E02A95F1F700C08A
:10074000880F915081F7C49A0895C198EACFC5984F
:10075000EDCF60E00C948E03CF93DF9380E40E9492
:10076000A90380E80E94A903C2E8D0E061E0899172
:100770000E948E0382E0CA37D807C1F7DF91CF917C
:100780000895EF92FF920F931F93CF93DF93C82F9B
:10079000162FD22F222349F026E1429FC0011124B7
:1007A0006D2F70E00E949708D62F07E10C0F21E013
:1007B000412F602F8C2F0E945B0344E0410F21E00A
:1007C000602F8C2F0E945B03EE24E394E10E41E046
:1007D0006E2D8C2F0E941B0382E0F82EF10E41E05B
:1007E0006F2D8C2F0E941B031D5F41E0612F8C2F0A
:1007F0000E941B0341E06E2D802F0E941B0341E0ED
:100800006F2D802F0E941B0341E0612F802F0E94DB
:100810001B0310E0CF5FD11307C0DF91CF911F9171
:100820000F91FF90EF90089541E06F2D8C2F810F75
:100830000E941B031F5FEFCF00D000D00F92CDB7F7
:10084000DEB787B3836B87BBC49AC798C09AC0983A
:100850008FE19EE40197F1F700C00000C09A81E2A9
:100860000E94A9038FEB0E94A90384E00E94A903C0
:1008700084E10E94A90380E20E94A9038CE00E9407
:10088000A903E2E8F0E088EF91E0DF019C011D920E
:1008900021503040E1F78AB3807C8ABB8BB38F63F1
:1008A0008BBB0E94460283E083BF109281001092AE
:1008B000800088E080937F008AE080937E00109221
:1008C0007D0010927C0010927B0010927A00809341
:1008D00079001092780010927700109276001092B2
:1008E00075001092740010927300109272001092B2
:1008F000710081EE9CEA9093700080936F001092DB
:10090000660096E6A92E90E0B92E23E0822E912C67
:1009100034E0432E42E1242E39B330953F73809169
:100920006E0090916D00A0E6B0E0E7E6F0E02D915A
:10093000522F532371E009F470E061E0422F482305
:1009400009F460E0761352C010823196AA16BB06F5
:1009500071F780936E0090936D0022B7682F620F3D
:100960007727771F20917F00260F372F311D409169
:100970007E0070E1479FA0011124240F351F409194
:100980006F0050917000242735273093700020931A
:100990006F0020917A0030917B002130310509F001
:1009A0001DC180917300882319F0815080937300DA
:1009B000892F8F7E80936D0094FFEFC00E945602B6
:1009C00081708E5F90917700891710F110927700F7
:1009D00081E0809371002092720082E090E0909319
:1009E0007B0080937A000E94460217C0408142300B
:1009F00030F01082511109C020958223A6CF4F5F9D
:100A00004083423009F0A1CFF4CF822B922B9DCFAF
:100A1000981B909377000E94740380917A009091C4
:100A20007B008130910509F099C10E9410038091EB
:100A3000780001E0811140C128E048E068E08AE3E5
:100A40000E943C03809112018B7F80931201809160
:100A500016018B7F8093160120E04EE061E48BE36A
:100A60000E945B0380910E01806180930E01809152
:100A700019018061809319012091760040917700DF
:100A800066E086E00E94C10301E025E046E06BE1FC
:100A90008DE00E943C0327E048E060E28CE00E9489
:100AA0003C0380918C018F7D80938C0180918F011C
:100AB0008F7D80938F018091DD0184608093DD01C3
:100AC0008091E60184608093E6018091DF01806877
:100AD0008093DF018091E40180688093E4012AE043
:100AE000409179006FE186E30E94C10300E027E0B6
:100AF00047E067E28CE10E943C0321E04AE262E2C7
:100B00008DE10E945B0380914702816080934702E0
:100B100080914602826080934602809145028860FF
:100B20008093450227E047E067E281E30E943C03AF
:100B3000809106028068809306028091590281604C
:100B40008093590280915B02816080935B0221E077
:100B50004AE266E382E30E945B0321E04BE266E344
:100B600082E30E945B038091730080FF0DC001E06F
:100B700022E044E560E080E00E943C0322E044E59E
:100B80006EE280E00E943C030E94AC03EFE1FEE4D1
:100B90003197F1F700C00000BFCE892F8F7C809382
:100BA0006D0095FF3ACF8091760090917700891B78
:100BB00090917400AEE08A9F900D112499830E9459
:100BC0005602B981B73E10F0E6EEE983F9818F173E
:100BD00008F021CF22E020937100FDCE22303105B4
:100BE000E9F480917200882321F081508093720093
:100BF00014CF8091790081110CC03AE030937900D4
:100C0000109281001092800068E060937F00309322
:100C10007E0010927B0010927A00E5CE90916600E3
:100C2000992321F0915090936600F7CE50E040E078
:100C30006FEF80FD05C081FF31C042E050E061E010
:100C400080E00E94AD0240926600823009F0E5CE5D
:100C500080917A0090917B00892B09F0DECE0E9472
:100C60005602837009F0D9CE70918000770F809181
:100C70008100780F872F90E09C838B830E9456021F
:100C800063E00E948B08AB81BC81A90FB11DCD012F
:100C9000B4010E94AB080E947A02BFCE82FF05C059
:100CA00043E050E060E08FEFCCCF83FFB6CE41E071
:100CB00050E060E081E0C5CF813079F528E046E082
:100CC00069E08BE30E943C0380911201877F80934F
:100CD000120180911501877F8093150180910D018C
:100CE000816080930D0180910E01826080930E01DE
:100CF00080910F01846080930F0180911A018160BF
:100D000080931A018091190182608093190180916A
:100D10001801846080931801AFCE27E048E06AE0B4
:100D20008AE30E943C03809111018260809311014B
:100D300080911601826080931601809112018F7E4E
:100D400080931201809115018F7E8093150121E01F
:100D500041E162E489E30E945B038ECE029709F0D1
:100D600074C00E94100380917100813069F401E029
:100D700020E140E160E182E20E943C0300E028E0E3
:100D800048E064E186E2FECE823009F04AC000E02D
:100D90002EE04EE060E183E20E943C0321E047E167
:100DA00060E384E20E945B0380914D018061809347
:100DB0004D0180914E01846080934E0180915001DD
:100DC0008260809350018091570182608093570127
:100DD0008091590184608093590180915B01806109
:100DE00080935B018091A10184608093A101809137
:100DF000A20180618093A2018091A401806280930E
:100E0000A4018091AB0180628093AB018091AD0120
:100E100080618093AD018091AF0184608093AF01C8
:100E2000B3CE01E024E146E16EE08FE10E943C0395
:100E300020E044E162E382E20E945B0320E04CE1B7
:100E400062E382E20E945B039FCE30908000330C0D
:100E500080918100380E0E941003FCEF3F9E6001DC
:100E600011241D827D8073946D80639463948D81C1
:100E70008D5F8983D601AC5ABF4F7D01B3E0BA8341
:100E800012E0E1E0EB835B805A9423E0231548F005
:100E9000F7018491811103C041E06981CAC08130AA
:100EA00081F401E024E044E06D81852D0E943C0343
:100EB00040E0672D8B810E941B0340E0662D812F4F
:100EC00015C0823009F085C041E06981852D0E94FE
:100ED0001B0341E0672D8B810E941B0341E0662DBF
:100EE000812F0E941B0341E06D818A810E941B03B8
:100EF000FB81FC5FFB831C5F2A812C5F2A833FEF11
:100F0000E31AF30A163509F0BECF6D816C5F6D836D
:100F100075E1C70ED11C603309F0A4CFF0917E00BB
:100F2000FF0FFF0FF98320917F00220F220F2A83EA
:100F300000E024E044E06F2F8A810E943C03EA80B5
:100F4000E39441E069818E2D0E941B03FA80F394A3
:100F5000F39441E069818F2D0E941B0319811F5F6B
:100F600041E0612F8E2D0E941B0341E0612F8F2DE8
:100F70000E941B03D980D394D39441E06D2D8A81C4
:100F80000E941B030A810D5F41E06D2D802F0E949E
:100F90001B0383E0D82E3981D30E41E06D2D8E2DB9
:100FA0000E941B0341E06D2D8F2D0E941B03809139
:100FB0007C0090917D00009709F090C040E0612F87
:100FC0008E2D0E941B0340E0612F8F2D0E941B037A
:100FD000DBCD8330C9F400E024E044E06D81852D51
:100FE0000E943C0341E0672D852D0E941B0341E0D8
:100FF000672D8B810E941B0341E0662D812F0E948B
:101000001B0341E0662D71CF8430A9F401E024E098
:1010100044E06D81852D0E943C0340E069818B8115
:101020000E941B0340E06981812F0E941B0340E066
:10103000672D8B815BCF8530F9F441E06D818B8129
:101040000E941B0341E06D81812F0E941B0341E040
:10105000672D852D0E941B0341E0672D8A810E9428
:101060001B0341E0662D8B810E941B0341E0662D2E
:10107000812F0E941B0310CF863009F039CF41E049
:101080006D818B810E941B0341E06D81812F0E9445
:101090001B0341E0672D852D0E941B0341E0672D56
:1010A0008A810E941B0341E0662D852D0E941B034F
:1010B00041E0662D8A810E941B0341E069818B819A
:1010C0000E941B0341E06981812F0E941B0341E0C4
:1010D000672D8B810E941B0341E0F0CE8230910589
:1010E00041F440E069818E2D0E941B0340E069813C
:1010F0006CCF41E0612F039739F48A810E941B0372
:1011000040E0612F802F62CF802F0E941B0340E0C0
:10111000612F8A815BCF991B79E004C0991F9617D4
:1011200008F0961B881F7A95C9F780950895AA1B29
:10113000BB1B51E107C0AA1FBB1FA617B70710F0C2
:10114000A61BB70B881F991F5A95A9F780959095F4
:10115000BC01CD01089597FB072E16F4009407D02B
:1011600077FD09D00E94970807FC05D03EF49095C2
:1011700081959F4F0895709561957F4F0895F894DC
:02118000FFCF9F
:0611820001020408102028
:00000001FF
