:100000000C942A000C9447000C9447000C94470071
:100010000C9447000C9447000C9447000C94470044
:100020000C9447000C9447000C9447000C94470034
:100030000C9447000C9447000C9447000C94470024
:100040000C9447000C9447000C9447000C94470014
:100050000C94470011241FBECFE5D4E0DEBFCDBF16
:1000600011E0A0E6B0E0E6EFF4E002C005900D92EA
:10007000AC35B107D9F723E0ACE5B1E001C01D9282
:10008000AE35B207E1F70E94E8000C9479020C94B7
:1000900000008435C8F46033B8F4962F9695969591
:1000A0009695E82FF0E084E5989FE00DF11D11246E
:1000B000EA59FE4F677021E030E001C0220F6A95D7
:1000C000EAF78081822B80830895BF92CF92DF92DE
:1000D000EF92FF920F931F93CF93DF93C82FD62FEA
:1000E0007A0185E0B82EBC0EF701C1907F0110E0C7
:1000F00000E0D12CC601002E02C0959587950A9488
:10010000E2F780FF05C06D2F600F8C2F0E94490021
:100110000F5F1F4F0730110569F7CF5FCB11E4CF99
:10012000DF91CF911F910F91FF90EF90DF90CF90D3
:10013000BF900895CF93C0E060E08C2F0E944900EB
:100140006FE28C2F0E944900CF5FC435A9F7C0E051
:100150006C2F80E00E9449006C2F83E50E944900CB
:10016000CF5FC033A9F7CF9108956623A9F0C19A54
:10017000C49898E087FF12C0C59AC79A22E02A95D2
:10018000F1F700C0C79822E02A95F1F700C0880F68
:10019000915081F7C49A0895C198EACFC598EDCFE0
:1001A00060E00C94B500CF93DF9380E40E94D00010
:1001B00080E80E94D000C6E6D1E061E089910E940B
:1001C000B50083E0CE35D807C1F7DF91CF91089510
:1001D000CDB7DEB768970FB6F894DEBF0FBECDBFC0
:1001E00087B3836B87BBC49AC798C09AC0988FE1C6
:1001F0009EE40197F1F700C00000C09A81E20E94DE
:10020000D0008FEB0E94D00084E00E94D00084E1F7
:100210000E94D00080E20E94D0008CE00E94D000BA
:10022000E6E6F1E088EF91E0DF019C011D922150AC
:100230003040E1F78AB38C7C8ABB8BB383638BBB82
:1002400089B3809583738093650110926401109245
:10025000630110925F01109260011092610110928F
:100260006201BB24B3943F0188EFE82EFF24F3948E
:10027000CC24C394D12C39B330953373909165015C
:100280005091630180916401A0EEB0E0EFE5F1E0F0
:100290002D91622F632311E009F410E071E0422FE9
:1002A000492309F470E017137CC01082319620E0D6
:1002B000A43EB20769F7909365018093640150935F
:1002C000630120915C0130915D012115310509F038
:1002D0007CC080FF07C090915E01992319F0915076
:1002E00090935E0181FF06C090915E01911102C062
:1002F000B0925E01982F9C7E9093640110915E01F4
:1003000084FF06C0113021F4D0925D01C0925C01DF
:10031000D301F7011D923197E9F70E949A008AE014
:10032000E0E6F0E0DE01119601900D928A95E1F78A
:100330009E012F5F3F4F49010AE1D4014D915D912C
:100340004D016EE0802F0E9465000A5F0833A9F717
:100350008CE0EAE6F0E0DE01119601900D928A95BC
:10036000E1F7FE0131964F0108E1D4014D915D9115
:100370004D016BE1802F0E9465000A5F0C33A9F7E5
:1003800044EE50E06EE011116BE180E10E946500E7
:100390000E94D300EFE1FEE43197F1F700C00000C6
:1003A0006ACF4081423040F0108261110BC0422F71
:1003B00040959423522B7ACF4F5F4083423009F00F
:1003C00075CFF2CF922B822B71CF2130310511F7EF
:1003D000982F9F7D9093640185FF04C010925D016A
:1003E00010925C01F3019701119221503040E1F726
:1003F0000E949A0049E351E067E28BE40E946500A5
:1004000084E1E6E7F0E0DE01119601900D928A9515
:10041000E1F7CE0101964C0116E0D4014D915D91BA
:100420004D0164E0812F0E9465001A5F1234A9F724
:1004300088E1EAE8F0E0DE01119601900D928A95DC
:10044000E1F7FE0131964F0116E0D4014D915D9127
:100450004D016CE0812F0E9465001A5F1E34A9F7E0
:1004600086E1E2EAF0E0DE01119601900D928A95B4
:10047000E1F7FE0131964F0116E0D4014D915D91F7
:100480004D0164E1812F0E9465001A5F1834A9F7BD
:1004900088E1E8EBF0E0DE01119601900D928A957B
:1004A000E1F7FE0131964F0116E0D4014D915D91C7
:1004B0004D016CE1812F0E9465001A5F1E34A9F77F
:1004C00080E1E0EDF0E0DE01119601900D928A9559
:1004D000E1F7FE0131964F0116E0D4014D915D9197
:1004E0004D0164E2812F0E9465001A5F1633A9F75F
:0604F0004FCFF894FFCF8E
:1004F600570152014D01480143013E0148014301A4
:100506004D01480143013E010C01110120012A0160
:10051600F8003401E900160134012A010C01110129
:10052600FD000C0116013401E9003401E900160151
:1005360034012A010C01EE000701F300F800340132
:1005460025010C01020134012A010C011101E90007
:1005560020011601E9002A0134012F0116012001AC
:100566002001FD00070120012A011B0134011601AB
:1005760001021020003E1C080000000000007C0460
:100586001804783C4040207C043F444020485454A2
:1005960054247C080404087C141414083844444485
:1005A600387C0404047800417F400000447D40000C
:1005B6003854545418384444447F38444444287FBB
:1005C6004444443820545454787F494949363E417E
:1005D6004141227F091929467E1111117E3E41496A
:0C05E600497A3F4040403F2040413F0127
:00000001FF
