:100000000C942A000C9447000C9447000C94470071
:100010000C9447000C9447000C9447000C94470044
:100020000C9447000C9447000C9447000C94470034
:100030000C9447000C9447000C9447000C94470024
:100040000C9447000C9447000C9447000C94470014
:100050000C94470011241FBECFE5D4E0DEBFCDBF16
:1000600010E0A0E6B0E0E4E1F4E002C005900D92FB
:10007000AA3BB107D9F722E0AAEBB0E001C01D927C
:10008000A23BB207E1F70E9443010C9408020C94D2
:1000900000008435C8F46033B8F4962F9695969591
:1000A0009695E82FF0E084E5989FE00DF11D11246E
:1000B000E654FF4F677021E030E001C0220F6A95DF
:1000C000EAF78081822B808308955F926F927F92FE
:1000D0008F929F92AF92BF92CF92DF92EF92FF9258
:1000E0000F931F93CF93DF9300D000D000D0CDB7F4
:1000F000DEB7B82EA62ECA014AE0BE016F5F7F4F61
:100100000E94D301E12C85E0782EE1E0F0E0EC0FD5
:10011000FD1FEE0DF11D0081011116C026960FB6D0
:10012000F894DEBF0FBECDBFDF91CF911F910F912D
:10013000FF90EF90DF90CF90BF90AF909F908F9007
:100140007F906F905F90089500530A3060F5FE2C09
:10015000FF0CFE0CFF0CFB0C079D800111240659BF
:100160001F4F612CF80181908F01D12CC12C912C53
:10017000562C5F0CC4010C2C02C0959587950A94EF
:10018000E2F780FF05C06A2D6C0D852D0E944900A5
:10019000FFEFCF1ADF0A87E0C816D10459F763943E
:1001A000E5E06E12DFCFE394B0CFBF92CF92DF9243
:1001B000EF92FF920F931F93CF93DF93C82FD62F09
:1001C0007A0185E0B82EBC0EF701C1907F0110E0E6
:1001D00000E0D12CC601002E02C0959587950A94A7
:1001E000E2F780FF05C06D2F600F8C2F0E94490041
:1001F0000F5F1F4F0730110569F7CF5FCB11E4CFB9
:10020000DF91CF911F910F91FF90EF90DF90CF90F2
:10021000BF9008951F93CF93DF93C82F142FD52F2E
:10022000462F50E0682F83E00E9465004CE950E0C3
:100230006C2F89E00E94D500412F5D2F6C2F84E147
:10024000DF91CF911F910C9465006623A9F0C19AAC
:10025000C49898E087FF12C0C59AC79A22E02A95F1
:10026000F1F700C0C79822E02A95F1F700C0880F87
:10027000915081F7C49A0895C198EACFC598EDCFFF
:1002800060E00C942501CDB7DEB72A970FB6F8943D
:10029000DEBF0FBECDBF87B3836B87BBC49AC79841
:1002A000C09AC0988FE19EE40197F1F700C000006A
:1002B000C09A81E20E9440018FEB0E94400184E0DD
:1002C0000E94400184E10E94400180E20E944001BE
:1002D0008CE00E9440018AEBE82E80E0F82E98EF37
:1002E000C92EDD24D394F701C60111920197E9F7D5
:1002F00010E060E0812F0E9449006FE2812F0E9490
:1003000049001F5F1435A9F710E0612F80E00E94BB
:100310004900612F83E50E9449001F5F1033A9F750
:100320008AE0E0E6F0E0DE01119601900D928A95F8
:10033000E1F7FE0131965F011DE1F5014191519117
:100340005F0162E0812F0E94D5001A5F1B33A9F77D
:1003500041E850E061E08CE00E940A0146E450E090
:1003600062E084E10E940A0140E250E063E08CE137
:100370000E940A0141E150E064E084E20E940A0127
:1003800080E40E94400180E80E9440010AEB10E0F6
:1003900061E0F80181918F010E942501F2E0023BAA
:1003A0001F07B1F7A0CFBB274A3031F4992322F4BD
:1003B000BDE2909581959F4F0C94DF01BB27FB0117
:1003C0005527AA27880F991FAA1FA41710F0A41B4E
:1003D00083955051B9F7A05DAA3308F0A95DA193A8
:1003E000009779F7B111B1931192CB010C94F801F8
:1003F000DC01FC01672F71917723E1F7329704C08C
:100400007C916D9370836291AE17BF07C8F3089516
:04041000F894FFCF8E
:10041400B500B000AB00A600A1003E5149453E0026
:10042400427F400042615149462141454B311814F5
:10043400127F1027454545393C4A49493001710925
:1004440005033649494936064949291E00006060BA
:10045400007F494949417F091929463E4141413EAE
:0A0464003E41414122264949493238
:00000001FF
