:100000000C942A000C9447000C9447000C94470071
:100010000C9447000C9447000C9447000C94470044
:100020000C9447000C9447000C9447000C94470034
:100030000C9447000C9447000C9447000C94470024
:100040000C9447000C9447000C9447000C94470014
:100050000C94470011241FBECFE5D4E0DEBFCDBF16
:1000600010E0A0E6B0E0EEE2F4E002C005900D92F0
:10007000AE3CB107D9F722E0AEECB0E001C01D9272
:10008000A63CB207E1F70E9421010C9415020C94E2
:1000900000008435C8F46033B8F4962F9695969591
:1000A0009695E82FF0E084E5989FE00DF11D11246E
:1000B000E253FF4F677021E030E001C0220F6A95E4
:1000C000EAF78081822B808308957F928F929F929E
:1000D000AF92BF92CF92DF92EF92FF920F931F9356
:1000E000CF93DF9300D000D000D0CDB7DEB7A82EDD
:1000F000CB014AE0BE016F5F7F4F0E94E00199E1B2
:10010000D92EB12C25E0722EE1E0F0E0EC0FFD1FBE
:10011000EB0DF11D0081011114C026960FB6F89465
:10012000DEBF0FBECDBFDF91CF911F910F91FF902A
:10013000EF90DF90CF90BF90AF909F908F907F9087
:10014000089500530A3030F5079D800111240659A7
:100150001F4F8BEFC82ECD0CF80181908F01F12C31
:10016000E12C912CC4010E2C02C0959587950A9420
:10017000E2F780FF05C06A2D6E0D8C2D0E944900AC
:10018000FFEFEF1AFF0A87E0E816F10459F7C3946E
:10019000CD10E2CFB394E6E0DE0EB6CFBF92CF92A1
:1001A000DF92EF92FF920F931F93CF93DF93C82FAD
:1001B000D62F7A0185E0B82EBC0EF701C1907F01E1
:1001C00010E000E0D12CC601002E02C09595879565
:1001D0000A94E2F780FF05C06D2F600F8C2F0E94FC
:1001E00049000F5F1F4F0730110569F7CF5FCB1133
:1001F000E4CFDF91CF911F910F91FF90EF90DF90AF
:10020000CF90BF9008956623A9F0C19AC49898E052
:1002100087FF12C0C59AC79A22E02A95F1F700C05D
:10022000C79822E02A95F1F700C0880F915081F716
:10023000C49A0895C198EACFC598EDCF60E00C94B8
:100240000301CDB7DEB72A970FB6F894DEBF0FBE15
:10025000CDBF87B3836B87BBC49AC798C09AC09839
:100260008FE19EE40197F1F700C00000C09A81E29F
:100270000E941E018FEB0E941E0184E00E941E015D
:1002800084E10E941E0180E20E941E018CE00E9417
:100290001E018EECC82E80E0D82E98EFA92EBB242C
:1002A000B39426ECE22E22E0F22EF601C501119263
:1002B0000197E9F710E060E0812F0E9449006FE2AA
:1002C000812F0E9449001F5F1435A9F710E0612FAC
:1002D00080E00E944900612F83E50E9449001F5F72
:1002E0001033A9F78AE0E0E6F0E0DE011196019014
:1002F0000D928A95E1F7FE0131964F011DE1F4015F
:10030000419151914F0162E0812F0E94CE001A5F0E
:100310001B33A9F749EC50E06CE082E00E94CE006C
:100320004CE950E06CE088E00E94CE0044EC50E0E4
:1003300064E182E00E94CE004CE950E064E188E094
:100340000E94CE004FEB50E06CE182E00E94CE00B4
:100350004CE950E06CE188E00E94CE004AEB50E0AE
:1003600064E282E00E94CE004CE950E064E288E062
:100370000E94CE0061E870E08CE00E94650066E4B7
:1003800070E084E10E94650060E270E08CE10E9410
:10039000650061E170E084E20E94650080E40E94F3
:1003A0001E0180E80E941E010EEC10E061E0F801E1
:1003B00081918F010E940301E016F106B9F775CF14
:1003C000BB274A3031F4992322F4BDE29095819500
:1003D0009F4F0C94EC01BB27FB015527AA27880FE0
:1003E000991FAA1FA41710F0A41B83955051B9F7A9
:1003F000A05DAA3308F0A95DA193009779F7B11128
:10040000B1931192CB010C940502DC01FC01672F22
:1004100071917723E1F7329704C07C916D937083DB
:0E0420006291AE17BF07C8F30895F894FFCF9E
:10042E00B500B000AB00A600A1003E5149453E000C
:10043E00427F400042615149462141454B311814DB
:10044E00127F1027454545393C4A4949300171090B
:10045E0005033649494936064949291E00006060A0
:10046E00007F494949417F091929463E4141413E94
:10047E003E4141412226494949321814127F10212A
:0E048E0041454B31426151494600427F4000DA
:00000001FF
