:100000000C942A000C9447000C9447000C94470071
:100010000C9447000C9447000C9447000C94470044
:100020000C9447000C9447000C9447000C94470034
:100030000C9447000C9447000C9447000C94470024
:100040000C9447000C9447000C9447000C94470014
:100050000C94470011241FBECFE5D4E0DEBFCDBF16
:1000600011E0A0E6B0E0ECEDFDE002C005900D92DD
:10007000AE3DB107D9F724E0AEEDB1E001C01D926D
:10008000AD36B207E1F70E94E8020C94EC060C943E
:1000900000000F931F93CF9329B320952F73809166
:1000A000E9014091E7015091E801AAE0B1E0E1EEF9
:1000B000F1E000E111E09D91692F6223C1E009F4B4
:1000C000C0E071E0382F392309F470E0C7130FC086
:1000D000108231960A171B0771F78093E90150933C
:1000E000E8014093E701CF911F910F91089530816E
:1000F000323040F0108261110AC0392F30958323CD
:10010000492BE7CF3F5F3083323019F7F3CF892B8C
:10011000592BDFCF21E030E001C0220F8A95EAF7AA
:100120008091E801922F909598239093E801982F61
:10013000922381E009F480E00895E5E7F2E088EF9A
:1001400091E0DF019C011D9221503040E1F70895BC
:100150008435D8F46033C8F4962F96959695969585
:10016000E82FF0E084E5989FE00DF11D1124EB5895
:10017000FD4F2081677081E090E001C0880F6A9593
:10018000EAF7442319F0822B808308958095822317
:10019000FBCFCF93C0E041E060E08C2F0E94A8002D
:1001A00041E06FE28C2F0E94A800CF5FC43599F721
:1001B000C0E041E06C2F80E00E94A80041E06C2F7D
:1001C00083E50E94A800CF5FC03399F7CF910895CF
:1001D000BF92CF92DF92EF92FF920F931F93CF9334
:1001E000DF93C82FD62F7A0185E0B82EBC0EF70119
:1001F000C1907F0110E000E0D12CC601002E02C0AA
:10020000959587950A94E2F780FF06C041E06D2F2F
:10021000600F8C2F0E94A8000F5F1F4F0730110541
:1002200061F7CF5FCB11E3CFDF91CF911F910F919A
:10023000FF90EF90DF90CF90BF900895EF92FF92E4
:100240000F931F93CF93DF93C82FE62EF22E8A01D0
:10025000D0E0F801419151918F016E2D8C2F0E94B9
:10026000E800DF5FCA5FFD12F4CFDF91CF911F91ED
:100270000F91FF90EF9008955F926F927F928F920F
:100280009F92AF92BF92CF92DF92EF92FF920F9325
:100290001F93CF93DF9300D000D000D0CDB7DEB74F
:1002A000B82EA62ECA014AE0BE016F5F7F4F0E94A2
:1002B0005406E12C85E0782EE1E0F0E0EC0FFD1F24
:1002C000EE0DF11D0081011116C026960FB6F894AF
:1002D000DEBF0FBECDBFDF91CF911F910F91FF9079
:1002E000EF90DF90CF90BF90AF909F908F907F90D6
:1002F0006F905F90089500530A3068F5FE2CFF0C54
:10030000FE0CFF0CFB0C079D800111240B5E1E4FA1
:10031000612CF80181908F01D12CC12C912C562C8D
:100320005F0CC4010C2C02C0959587950A94E2F7E6
:1003300080FF06C041E06A2D6C0D852D0E94A8004B
:10034000FFEFCF1ADF0A87E0C816D10451F7639494
:10035000E5E06E12DECFE394AFCF1F93CF93DF9330
:10036000C82F142FD52F462F50E0682F83E00E940E
:100370003C0147E451E06C2F89E00E94E800412FE6
:100380005D2F6C2F84E1DF91CF911F910C943C0184
:100390000F931F93CF93DF93C82F162F04E0080FFE
:1003A000D0E0612F6D0F41E08C2F0E94A800DF5F2D
:1003B000D430B9F7CF5FC013F3CFDF91CF911F9146
:1003C0000F910895BF92CF92DF92EF92FF920F9319
:1003D0001F93CF93DF93D091F201B090F30101EF1F
:1003E00013E025E1E22EF12C3CE0C32ED12C01508C
:1003F0001109A9F401EF13E085E1E82EF12C9CE04E
:10040000C92ED12C0150110979F5DF91CF911F919F
:100410000F91FF90EF90DF90CF90BF9008950E94D2
:100420004406B7010E94B405C82F0E944406B601D5
:100430000E94B405DC1761F02091F401E5EFF1E0D2
:1004400090E0921308C0C093F2018093F301DDCFD6
:10045000B812F2CFCCCF3081C31303C031818317E0
:1004600031F29F5F3296EDCF0E944406B7010E94A1
:10047000B405C82F0E944406B6010E94B40520911D
:10048000F401E5EFF1E090E09217E9F23081C31357
:1004900004C03181831709F4B5CF9F5F3296F4CF42
:1004A00083E08093F4011092EB011092EA01109224
:1004B000ED011092EC018AE08093F50186E08093D3
:1004C000F60199E09093F7018093F80198E09093FA
:1004D000F9018093FA0183E090E09093F101809319
:1004E000F0019093EF018093EE018FEF8093F20182
:1004F0008093F30192B789B3892720916D043091DD
:100500006E0482279327582F5695492F47954427E5
:100510004795352F342B592F5695482F479544270B
:100520004795252F242B2817390751F08227932729
:1005300090936E0480936D040E9449060C94E2012E
:1005400085EA95EAF5CF89B380958F738093E901A9
:100550001092E8011092E701E1EEF1E010821182C1
:10056000128213821482158208956623A9F0C19A1B
:10057000C49898E087FF12C0C59AC79A22E02A95CE
:10058000F1F700C0C79822E02A95F1F700C0880F64
:10059000915081F7C49A0895C198EACFC598EDCFDC
:1005A00060E00C94B502CF93DF9380E40E94D00208
:1005B00080E80E94D002C5E7D2E061E089910E9404
:1005C000B50284E0CD36D807C1F7DF91CF91089509
:1005D000CDB7DEB768970FB6F894DEBF0FBECDBFBC
:1005E00087B3836B87BBC49AC798C09AC0988FE1C2
:1005F0009EE40197F1F700C00000C09A81E20E94DA
:10060000D0028FEB0E94D00284E00E94D00284E1ED
:100610000E94D00280E20E94D0028CE00E94D002B0
:10062000E5E7F2E088EF91E0DF019C011D922150A7
:100630003040E1F78AB3807C8ABB8BB38F638BBB7E
:1006400083E083BF0E94A3020E944900812C712C89
:100650006624639403E010E062E0E62EF12CCC24E3
:10066000C394D12CE6EAAE2EE1E0BE2E8091DE01ED
:100670009091DF01009709F065C080E00E948A0038
:10068000882339F08091E001882319F0815080930C
:10069000E00181E00E948A00882331F08091E0012E
:1006A000811102C06092E00184E00E948A00909073
:1006B000E001882349F031E093123DC0D092DF0180
:1006C000C092DE010E94A3020E949D000E94C90008
:1006D0008AE0E4E6F0E0DE01119601900D928A9541
:1006E000E1F725E0AE014F5F5F4F6EE08AE10E94C7
:1006F0001E018CE0EEE6F0E0DE01119601900D9215
:100700008A95E1F726E0AE014F5F5F4F6BE188E12C
:100710000E941E0140E151E06EE091106BE180E12A
:100720000E94E8000E94D3028FE19EE40197F1F756
:1007300000C000009BCF9110C7CFF092DF01E09284
:10074000DE01C0CF8130910509F071C085E00E94C3
:100750008A00882331F01092DF011092DE010E949E
:10076000A3020E949D000E94C900BA82A98221E0D2
:10077000AE014F5F5F4F67E28BE40E941E0184E190
:10078000EAE7F0E0DE01119601900D928A95E1F71B
:100790002AE0AE014F5F5F4F64E086E00E941E01D9
:1007A00088E1EEE8F0E0DE01119601900D928A9565
:1007B000E1F72CE0AE014F5F5F4F6CE086E00E94F6
:1007C0001E0186E1E6EAF0E0DE01119601900D924D
:1007D0008A95E1F72BE0AE014F5F5F4F64E186E061
:1007E0000E941E0188E1ECEBF0E0DE011196019021
:1007F0000D928A95E1F72CE0AE014F5F5F4F6CE1FF
:1008000086E00E941E0180E1E4EDF0E0DE01119639
:1008100001900D928A95E1F728E0AE014F5F5F4F9E
:1008200064E286E00E941E010E94D3021FCF823044
:10083000910509F041C084E00E948A00882341F0BC
:100840000E9450021093DF010093DE010E94A30278
:100850000E949D000E94C9008AE0E4EEF0E0DE0103
:10086000119601900D928A95E1F725E0AE014F5F58
:100870005F4F61E08DE10E941E0141E850E061E0C0
:100880008CE00E94AD0146E450E062E084E10E9409
:10089000AD0140E250E063E08CE10E94AD0141E136
:1008A00050E064E084E20E94AD010E94D302AFE117
:1008B000BEE41197F1F73CCF039709F0D7CE9090A3
:1008C000ED01992029F0711003C00E94A302812C30
:1008D000792C52E1952E0E9449008091ED018823E8
:1008E00009F46EC081105EC0882483948091E90170
:1008F0008111812C8FE19EE40197F1F700C0000087
:100900009A949110E8CF2091ED018091EC01282B71
:10091000C9F44091EE015091EF015093F1014093E1
:10092000F0019091F5018091F6014230510509F4F2
:10093000BCC008F088C0452B09F0B2C08111AEC020
:100940006092ED010E949D000E94C9006091F30138
:10095000660F660F8091F201880F880F0E94C80110
:100960008091F401981608F4C4C04091EA015091B6
:10097000EB0162E082E00E943C018091ED0188235E
:1009800009F4DDC082E1EEEEF0E0DE0111960190A7
:100990000D928A95E1F729E0AE014F5F5F4F62E16A
:1009A0008CE040CF8091E8011092E801882309F49F
:1009B000A1CF0E9450020E94A302812C712C9ACFD9
:1009C00085E00E948A00882329F08091EC01862529
:1009D0008093EC018091E90180FF0CC02091F0012F
:1009E0003091F1012130310529F01092EF01109280
:1009F000EE0180CF81FF0BC02091F0013091F10119
:100A0000232B29F0D092EF01C092EE0173CF82FF29
:100A10000CC02091F0013091F1012330310529F013
:100A2000F092EF01E092EE0165CF83FF63CF8091FA
:100A3000F0019091F101029709F45CCF1093EF015E
:100A40000093EE0157CF43305105A1F16091F401BD
:100A5000E5EFF1E0261333C0262F30E0422F1216C7
:100A6000C4F19093F5018093F6012091F201921365
:100A700069CF9091F301891365CF6F3318F46F5FDD
:100A80006093F4018091EA019091EB0101969093BB
:100A9000EB018093EA010E94E20154CF8150D6CF4E
:100AA0008B3008F04DCF8F5FD1CF992309F448CF19
:100AB0009150CCCF943108F043CF9F5FC7CF3081A6
:100AC000391304C03181381709F43ACF2F5F3296B9
:100AD000C1CF40345CF4F901EE0FFF1FEB50FE4F25
:100AE000DF0112974D915C91518340832150310970
:100AF000B5CF911015C05090F601550C550C409093
:100B0000F501440C440C652D842D0E94C80161E060
:100B1000650D40E081E0840D0E94A800939420CFF1
:100B2000E92DF0E0EE0FFF1FEB50FE4F6181660FE5
:100B3000660F8081880F880F0E94C801EFCF8091D7
:100B4000EC01882309F470CE8AE0E0E0F1E0DE01F8
:100B5000119601900D928A95E1F725E0AE014F5F65
:100B60005F4F62E18BE15ECE97FB072E16F4009497
:100B700007D077FD09D00E94C80507FC05D03EF4D8
:100B8000909581959F4F0895709561957F4F089539
:100B9000AA1BBB1B51E107C0AA1FBB1FA617B707A3
:100BA00010F0A61BB70B881F991F5A95A9F78095BF
:100BB0009095BC01CD010895CF92DF92EF92FF9204
:100BC000CF93DF93CDB7DEB72A970FB6F894DEBF89
:100BD0000FBECDBF89879A87A985BA852D913D9192
:100BE0004D915C9129833A834B835C83232B242B87
:100BF000252B41F424E239ED4BE557E029833A8374
:100C00004B835C8369817A818B819C812DE133EFF9
:100C100041E050E00E94890669017A01A7EAB1E447
:100C20009B01AC010E94A80669837A838B839C8315
:100C3000ACEEB4EFA70196010E94B6069B01AC0191
:100C400089819A81AB81BC81820F931FA41FB51F3C
:100C5000B7FF03C00197A109B048E985FA858083F1
:100C60009183A283B3839F772A960FB6F894DEBF51
:100C70000FBECDBFDF91CF91FF90EF90DF90CF906F
:100C800008950E94DC05089580E690E00E94DC054E
:100C90000895B0E0A0E08093600090936100A0937D
:100CA0006200B09363000895BB274A3031F4992362
:100CB00022F4BDE2909581959F4F0C946006BB276E
:100CC000FB015527AA27880F991FAA1FA41710F008
:100CD000A41B83955051B9F7A05DAA3308F0A95D14
:100CE000A193009779F7B111B1931192CB010C94B4
:100CF0007906DC01FC01672F71917723E1F73297C8
:100D000004C07C916D9370836291AE17BF07C8F3E6
:100D10000895052E97FB1EF400940E94A00657FD2F
:100D200007D00E94BB0607FC03D04EF40C94A0062B
:100D300050954095309521953F4F4F4F5F4F089507
:100D400090958095709561957F4F8F4F9F4F089537
:100D50000E94DD06A59F900DB49F900DA49F800D6D
:100D6000911D11240895B7FF0C94A8060E94A806AF
:100D7000821B930B0895A1E21A2EAA1BBB1BFD0137
:100D80000DC0AA1FBB1FEE1FFF1FA217B307E4076A
:100D9000F50720F0A21BB30BE40BF50B661F771FC2
:100DA000881F991F1A9469F76095709580959095A2
:100DB0009B01AC01BD01CF010895A29FB001B39F7B
:100DC000C001A39F700D811D1124911DB29F700D54
:0C0DD000811D1124911D0895F894FFCF9F
:100DDC0001000000B501B001D801D301BA01AB018B
:100DEC00D301BA01D801D301BA01AB016F0174016F
:100DFC0083018D015B0197014C01790197018D01F4
:100E0C006F01740160016F01790197014C01970129
:100E1C004C01790197018D016F0151016A01560155
:100E2C005B01970188016F01650197018D016F01CD
:100E3C0074014C01830179014C018D0197019201E0
:100E4C0079018301830160016A0183018D017E01B7
:100E5C0097017901A101AB01C401BA01C901D80103
:100E6C00D301CE01C9014C01C401BF01C901BA01B2
:100E7C009C01D301B001A101C90101020408102099
:100E8C00003E1C08003E5149453E00427F40004256
:100E9C00615149462141454B311814127F102745A9
:100EAC004545393C4A4949300171090503364949E0
:100EBC004936064949291E00006060000000000008
:100ECC00007C041804783C4040207C043F444020C3
:100EDC0048545454247C080404087C141414083812
:100EEC00444444387C0404047800417F40000044AE
:100EFC007D40003854545418384444447F3844449A
:100F0C0044287F4444443820545454787F090909B8
:100F1C000626494949327F494949363E41414122D9
:100F2C003F4040403F2040413F017F091929461F67
:100F3C002040201F3E4141413E7F494949417F02AB
:0E0F4C0004027F7E1111117E3E4149497A0058
:00000001FF
