:100000000C9491000C94AE000C94AE000C94AE00D5
:100010000C94AE000C94AE000C94AE000C94AE00A8
:100020000C94AE000C94AE000C94AE000C94AE0098
:100030000C94AE000C94AE000C94AE000C94AE0088
:100040000C94AE000C94AE000C94AE000C94AE0078
:100050000C94AE00003E1C08003E5149453E004253
:100060007F400042615149462141454B31181412ED
:100070007F1027454545393C4A49493001710905FA
:10008000033649494936064949291E000060600087
:1000900000000000007C041804783C4040207C04F0
:1000A0003F44402048545454247C080404087C14E1
:1000B00014140838444444387C0404047800417F14
:1000C000400000447D40003854545418384444449F
:1000D0007F38444444287F4444443820545454785E
:1000E0007F0909090626494949327F494949363E6F
:1000F000414141223F4040403F2040413F017F0974
:100100001929461F2040201F3E4141413E7F494959
:1001100049417F0204027F7E1111117E3E4149490F
:100120007A0011241FBECFE5D4E0DEBFCDBF11E0C1
:10013000A0E6B0E0E2EBFEE002C005900D92A03137
:10014000B107D9F723E0A0E1B1E001C01D92AF39BA
:10015000B207E1F70E9453030C9457070C94000078
:100160000F931F93CF9329B320952F7380911B0179
:100170004091190150911A01AAE0B1E0E3E1F1E0E8
:1001800000E111E09D91692F6223C1E009F4C0E014
:1001900071E0382F392309F470E0C7130FC01082C3
:1001A00031960A171B0771F780931B0150931A01B0
:1001B00040931901CF911F910F91089530813230F2
:1001C00040F0108261110AC0392F30958323492BEA
:1001D000E7CF3F5F3083323019F7F3CF892B592BAC
:1001E000DFCF21E030E001C0220F8A95EAF780914D
:1001F0001A01922F9095982390931A01982F922389
:1002000081E009F480E00895E7EAF1E088EF91E009
:10021000DF019C011D9221503040E1F708958435A3
:10022000D8F46033C8F4962F969596959695E82F56
:10023000F0E084E5989FE00DF11D1124E955FE4F93
:100240002081677081E090E001C0880F6A95EAF72D
:10025000442319F0822B8083089580958223FBCF5D
:10026000CF93C0E041E060E08C2F0E940F0141E09D
:100270006FE28C2F0E940F01CF5FC43599F7C0E069
:1002800041E06C2F80E00E940F0141E06C2F83E57C
:100290000E940F01CF5FC03399F7CF910895BF92AD
:1002A000CF92DF92EF92FF920F931F93CF93DF9342
:1002B000C82FD62F8A0185E0B82EBC0EF801C49055
:1002C000F12CE12CD12CC6010E2C02C095958795FE
:1002D0000A94E2F780FF06C041E06D2F6E0D8C2F6F
:1002E0000E940F01FFEFEF1AFF0A87E0E816F10402
:1002F00051F70F5F1F4FCF5FCB11E0CFDF91CF9151
:100300001F910F91FF90EF90DF90CF90BF900895D5
:10031000EF92FF920F931F93CF93DF93C82FE62E98
:10032000F22E8A01D0E0F801419151918F016E2D9A
:100330008C2F0E944F01DF5FCA5FFD12F4CFDF9167
:10034000CF911F910F91FF90EF9008955F926F9260
:100350007F928F929F92AF92BF92CF92DF92EF9255
:10036000FF920F931F93CF93DF9300D000D000D064
:10037000CDB7DEB7B82EA62ECA014AE0BE016F5F28
:100380007F4F0E94BF06E12C85E0782EE1E0F0E08F
:10039000EC0FFD1FEE0DF11D0081011116C0269618
:1003A0000FB6F894DEBF0FBECDBFDF91CF911F9186
:1003B0000F91FF90EF90DF90CF90BF90AF909F9004
:1003C0008F907F906F905F90089500530A3070F582
:1003D000FE2CFF0CFE0CFF0CFB0C079D8001112472
:1003E000075A1F4F612CF8018490D12CC12C912CFD
:1003F000562C5F0CC4010C2C02C0959587950A946D
:10040000E2F780FF06C041E06A2D6C0D852D0E9449
:100410000F01FFEFCF1ADF0A87E0C816D10451F7AA
:1004200063940F5F1F4FE5E06E12DDCFE394AECF14
:100430001F93CF93DF93C82F142FD52F462F50E053
:10044000682F83E00E94A6014BE850E06C2F89E002
:100450000E944F01412F5D2F6C2F84E1DF91CF91DE
:100460001F910C94A6010F931F93CF93DF93C82F76
:10047000162F04E0080FD0E0612F6D0F41E08C2FA4
:100480000E940F01DF5FD430B9F7CF5FC013F3CF05
:10049000DF91CF911F910F910895BF92CF92DF927C
:1004A000EF92FF920F931F93CF93DF93D09124018C
:1004B000B090250101EF13E025E1E22EF12C3CE0A4
:1004C000C32ED12C01501109A9F401EF13E085E1ED
:1004D000E82EF12C9CE0C92ED12C0150110979F5A0
:1004E000DF91CF911F910F91FF90EF90DF90CF9010
:1004F000BF9008950E94AF06B7010E941F06C82F43
:100500000E94AF06B6010E941F06DC1761F0209121
:100510002601E7E2F1E090E0921308C0C0932401C5
:1005200080932501DDCFB812F2CFCCCF3081C31339
:1005300003C03181831731F29F5F3296EDCF0E9465
:10054000AF06B7010E941F06C82F0E94AF06B60172
:100550000E941F0620912601E7E2F1E090E0921749
:10056000E9F23081C31304C03181831709F4B5CF98
:100570009F5F3296F4CF83E08093260110921D0195
:1005800010921C0110921F0110921E018AE08093AC
:10059000270186E08093280199E0909329018093B8
:1005A0002A0198E090932B0180932C0183E090E046
:1005B0009093230180932201909321018093200145
:1005C0008FEF809324018093250192B789B3892707
:1005D00020919F033091A00382279327582F56958F
:1005E000492F479544274795352F342B592F56953A
:1005F000482F479544274795252F242B281739073F
:1006000051F0822793279093A00380939F030E9429
:10061000B4060C944D0285EA95EAF5CF89B380952E
:100620008F7380931B0110921A0110921901E3E15C
:10063000F1E01082118212821382148215820895D1
:100640006623A9F0C19AC49898E087FF12C0C59AA2
:10065000C79A22E02A95F1F700C0C79822E02A95B0
:10066000F1F700C0880F915081F7C49A0895C1989E
:10067000EACFC598EDCF60E00C942003CF93DF93D1
:1006800080E40E943B0380E80E943B03C7EAD1E07C
:1006900061E089910E94200383E0CF39D807C1F738
:1006A000DF91CF910895CDB7DEB768970FB6F89474
:1006B000DEBF0FBECDBF87B3836B87BBC49AC7981D
:1006C000C09AC0988FE19EE40197F1F700C0000046
:1006D000C09A81E20E943B038FEB0E943B0384E0BF
:1006E0000E943B0384E10E943B0380E20E943B03A3
:1006F0008CE00E943B03E7EAF1E088EF91E0DF0144
:100700009C011D9221503040E1F78AB3807C8ABB66
:100710008BB38F638BBB83E083BF0E940E03812C5E
:10072000712C6624639403E010E062E0E62EF12C65
:10073000CC24C394D12CEAEEAE2EE0E0BE2E0E9473
:10074000B0008091100190911101009709F065C0EF
:1007500080E00E94F100882339F080911201882303
:1007600019F081508093120181E00E94F1008823EA
:1007700031F080911201811102C06092120184E077
:100780000E94F10090901201882349F031E0931209
:100790003DC0D0921101C09210010E940E030E9430
:1007A00004010E9430018AE0E4E6F0E0DE011196E7
:1007B00001900D928A95E1F725E0AE014F5F5F4F02
:1007C0006EE08AE10E9488018CE0EEE6F0E0DE0156
:1007D000119601900D928A95E1F726E0AE014F5FE8
:1007E0005F4F6BE188E10E94880144E550E06EE0D4
:1007F00091106BE180E10E944F010E943E038FE166
:100800009EE40197F1F700C0000099CF9110C7CF87
:10081000F0921101E0921001C0CF8130910509F0F2
:1008200071C085E00E94F100882331F0109211011F
:10083000109210010E940E030E9404010E943001D8
:10084000BA82A98221E0AE014F5F5F4F67E28BE47D
:100850000E94880184E1EAE7F0E0DE011196019050
:100860000D928A95E1F72AE0AE014F5F5F4F64E099
:1008700086E00E94880188E1EEE8F0E0DE01119652
:1008800001900D928A95E1F72CE0AE014F5F5F4F2A
:100890006CE086E00E94880186E1E6EAF0E0DE0195
:1008A000119601900D928A95E1F72BE0AE014F5F12
:1008B0005F4F64E186E00E94880188E1ECEBF0E0A4
:1008C000DE01119601900D928A95E1F72CE0AE01C0
:1008D0004F5F5F4F6CE186E00E94880180E1E4EDAC
:1008E000F0E0DE01119601900D928A95E1F728E083
:1008F000AE014F5F5F4F64E286E00E9488010E9474
:100900003E031DCF8230910509F041C084E00E9472
:10091000F100882341F00E94BB0210931101009363
:1009200010010E940E030E9404010E9430018AE01F
:10093000E4EEF0E0DE01119601900D928A95E1F768
:1009400025E0AE014F5F5F4F61E08DE10E948801BD
:1009500041E850E061E08CE00E94180246E450E07B
:1009600062E084E10E94180240E250E063E08CE122
:100970000E94180241E150E064E084E20E94180203
:100980000E943E03AFE1BEE41197F1F73CCF03971D
:1009900009F0D5CE90901F01992029F0711003C065
:1009A0000E940E03812C792C52E1952E0E94B000FA
:1009B00080911F01882309F46EC081105EC08824D5
:1009C000839480911B018111812C8FE19EE401971A
:1009D000F1F700C000009A949110E8CF20911F0118
:1009E00080911E01282BC9F44091200150912101D2
:1009F0005093230140932201909127018091280177
:100A00004230510509F4BCC008F088C0452B09F0FC
:100A1000B2C08111AEC060921F010E9404010E9409
:100A2000300160912501660F660F80912401880FC7
:100A3000880F0E94330280912601981608F4C4C0E2
:100A400040911C0150911D0162E082E00E94A601CC
:100A500080911F01882309F4DDC082E1EEEEF0E011
:100A6000DE01119601900D928A95E1F729E0AE0121
:100A70004F5F5F4F62E18CE040CF80911A0110928E
:100A80001A01882309F4A1CF0E94BB020E940E0321
:100A9000812C712C9ACF85E00E94F100882329F0E7
:100AA00080911E01862580931E0180911B0180FF8D
:100AB0000CC020912201309123012130310529F011
:100AC000109221011092200180CF81FF0BC0209154
:100AD000220130912301232B29F0D0922101C092D1
:100AE000200173CF82FF0CC020912201309123019D
:100AF0002330310529F0F0922101E092200165CFE9
:100B000083FF63CF8091220190912301029709F422
:100B10005CCF109321010093200157CF4330510542
:100B2000A1F160912601E7E2F1E0261333C0262F00
:100B300030E0422F1216C4F19093270180932801D0
:100B400020912401921369CF90912501891365CFDB
:100B50006F3318F46F5F6093260180911C019091B0
:100B60001D01019690931D0180931C010E944D026E
:100B700054CF8150D6CF8B3008F04DCF8F5FD1CF7F
:100B8000992309F448CF9150CCCF943108F043CF4A
:100B90009F5FC7CF3081391304C03181381709F402
:100BA0003ACF2F5F3296C1CF40345CF4F901EE0F9B
:100BB000FF1FE95DFE4FDF0112974D915C9151835C
:100BC000408321503109B5CF911015C050902801B4
:100BD000550C550C40902701440C440C652D842D78
:100BE0000E94330261E0650D40E081E0840D0E94C7
:100BF0000F01939420CFE92DF0E0EE0FFF1FE95D88
:100C0000FE4F6181660F660F8081880F880F0E94FA
:100C10003302EFCF80911E01882309F470CE8AE061
:100C2000E0E0F1E0DE01119601900D928A95E1F786
:100C300025E0AE014F5F5F4F62E18BE15ECE97FB37
:100C4000072E16F4009407D077FD09D00E943306D2
:100C500007FC05D03EF4909581959F4F08957095BF
:100C600061957F4F0895AA1BBB1B51E107C0AA1FC6
:100C7000BB1FA617B70710F0A61BB70B881F991F3D
:100C80005A95A9F780959095BC01CD010895CF9212
:100C9000DF92EF92FF92CF93DF93CDB7DEB72A9723
:100CA0000FB6F894DEBF0FBECDBF89879A87A9859E
:100CB000BA852D913D914D915C9129833A834B8367
:100CC0005C83232B242B252B41F424E239ED4BE5C7
:100CD00057E029833A834B835C8369817A818B81D6
:100CE0009C812DE133EF41E050E00E94F406690160
:100CF0007A01A7EAB1E49B01AC010E941307698362
:100D00007A838B839C83ACEEB4EFA70196010E949B
:100D100021079B01AC0189819A81AB81BC81820F43
:100D2000931FA41FB51FB7FF03C00197A109B048C7
:100D3000E985FA8580839183A283B3839F772A967E
:100D40000FB6F894DEBF0FBECDBFDF91CF91FF90FD
:100D5000EF90DF90CF9008950E944706089580E6B7
:100D600090E00E9447060895B0E0A0E08093600004
:100D700090936100A0936200B09363000895BB2735
:100D80004A3031F4992322F4BDE2909581959F4F2A
:100D90000C94CB06BB27FB015527AA27880F991F68
:100DA000AA1FA41710F0A41B83955051B9F7A05D9A
:100DB000AA3308F0A95DA193009779F7B111B19317
:100DC0001192CB010C94E406DC01FC01672F7191B8
:100DD0007723E1F7329704C07C916D937083629121
:100DE000AE17BF07C8F30895052E97FB1EF40094B5
:100DF0000E940B0757FD07D00E94260707FC03D06F
:100E00004EF40C940B0750954095309521953F4F2B
:100E10004F4F5F4F089590958095709561957F4FE6
:100E20008F4F9F4F08950E944807A59F900DB49F34
:100E3000900DA49F800D911D11240895B7FF0C946F
:100E400013070E941307821B930B0895A1E21A2E29
:100E5000AA1BBB1BFD010DC0AA1FBB1FEE1FFF1F5E
:100E6000A217B307E407F50720F0A21BB30BE40BAE
:100E7000F50B661F771F881F991F1A9469F76095F5
:100E80007095809590959B01AC01BD01CF010895AF
:100E9000A29FB001B39FC001A39F700D811D1124BB
:100EA000911DB29F700D811D1124911D0895F8941C
:020EB000FFCF72
:100EB20001000000F900F4001C011701FE00EF0020
:100EC2001701FE001C011701FE00EF00B300B8007D
:100ED200C700D1009F00DB009000BD00DB00D10005
:100EE200B300B800A400B300BD00DB009000DB003B
:100EF2009000BD00DB00D100B3009500AE009A0067
:100F02009F00DB00CC00B300A900DB00D100B300DE
:100F1200B8009000C700BD009000D100DB00D600F1
:100F2200BD00C700C700A400AE00C700D100C200C8
:100F3200DB00BD00E500EF000801FE000D011C0111
:100F4200170112010D019000080103010D01FE00BD
:100F5200E0001701F400E5000D0101020408102071
:00000001FF
