:100000000C942A000C9447000C9447000C94470071
:100010000C9447000C9447000C9447000C94470044
:100020000C9447000C9447000C9447000C94470034
:100030000C9447000C9447000C9447000C94470024
:100040000C9447000C9447000C9447000C94470014
:100050000C94470011241FBECFE5D4E0DEBFCDBF16
:1000600010E0A0E6B0E0E4E9F2E002C005900D92F5
:10007000A439B107D9F722E0A4E9B0E001C01D928C
:10008000AC38B207E1F70E94B8000C9448010C9418
:1000900000008435C8F46033B8F4962F9695969591
:1000A0009695E82FF0E084E5989FE00DF11D11246E
:1000B000EC56FF4F677021E030E001C0220F6A95D7
:1000C000EAF78081822B80830895BF92CF92DF92DE
:1000D000EF92FF920F931F93CF93DF93C82FD62FEA
:1000E0007A0185E0B82EBC0EF701C1907F0110E0C7
:1000F00000E0D12CC601002E02C0959587950A9488
:10010000E2F780FF05C06D2F600F8C2F0E94490021
:100110000F5F1F4F0730110569F7CF5FCB11E4CF99
:10012000DF91CF911F910F91FF90EF90DF90CF90D3
:10013000BF9008956623A9F0C19AC49898E087FFFC
:1001400012C0C59AC79A22E02A95F1F700C0C79855
:1001500022E02A95F1F700C0880F915081F7C49AE8
:100160000895C198EACFC598EDCF60E00C949A004D
:10017000CDB7DEB72C970FB6F894DEBF0FBECDBF5C
:1001800087B3836B87BBC49AC798C09AC0988FE126
:100190009EE40197F1F700C00000C09A81E20E943E
:1001A000B5008FEB0E94B50084E00E94B50084E1A9
:1001B0000E94B50080E20E94B5008CE00E94B5006C
:1001C00084E9E82E80E0F82E98EFC92EDD24D39440
:1001D000F701C60111920197E9F710E060E0812F65
:1001E0000E9449006FE2812F0E9449001F5F143571
:1001F000A9F710E0612F80E00E944900612F83E59C
:100200000E9449001F5F1033A9F78AE0E0E6F0E0A2
:10021000DE01119601900D928A95E1F7FE0131966B
:100220005F011AE1F501419151915F016EE0812F6B
:100230000E9465001A5F1833A9F78CE0EAE6F0E047
:10024000DE01119601900D928A95E1F7CE0101969B
:100250005C0118E1F501419151915F016BE1812F42
:100260000E9465001A5F1C33A9F780E40E94B50064
:1002700080E80E94B50004E910E061E0F801819196
:100280008F010E949A00F2E00C381F07B1F7A0CF4F
:04029000F894FFCF10
:100294008F008A00850080007B00760080007B0050
:1002A400850080007B003E414141227F0919294697
:1002B4007E1111117E3E4149497A3F4040403F2022
:0402C40040413F0175
:00000001FF
