:100000000C942A000C9447000C9447000C94470071
:100010000C9447000C9447000C9447000C94470044
:100020000C9447000C9447000C9447000C94470034
:100030000C9447000C9447000C9447000C94470024
:100040000C9447000C9447000C9447000C94470014
:100050000C94470011241FBECFE5D4E0DEBFCDBF16
:1000600010E0A0E6B0E0E6E9F4E002C005900D92F1
:10007000AE39B107D9F722E0AEE9B0E001C01D9278
:10008000AF39B207E1F70E9443010C9449020C9486
:10009000000089B3809583738093A6001092A50019
:1000A0001092A400E0EAF0E0108211821282138222
:1000B000089521E030E001C0220F8A95EAF780918F
:1000C000A500922F909598239093A500982F9223A6
:1000D00081E009F480E008958435C8F46033B8F411
:1000E000962F969596959695E82FF0E084E5989F43
:1000F000E00DF11D1124E955FF4F677021E030E05C
:1001000001C0220F6A95EAF78081822B80830895CF
:10011000BF92CF92DF92EF92FF920F931F93CF93F4
:10012000DF93C82FD62F7A0185E0B82EBC0EF701D9
:10013000C1907F0110E000E0D12CC601002E02C06A
:10014000959587950A94E2F780FF05C06D2F600FA3
:100150008C2F0E946C000F5F1F4F0730110569F74D
:10016000CF5FCB11E4CFDF91CF911F910F91FF9023
:10017000EF90DF90CF90BF900895CF92DF92FF92E3
:100180001F93CF93DF93CDB7DEB72C970FB6F894BC
:10019000DEBF0FBECDBFF82E8CE0E0E6F0E0DE0162
:1001A000119601900D928A95E1F7CE0101966C01AE
:1001B00018E1F601419151916F016F2D812F0E943D
:1001C00088001A5F1C33A9F72C960FB6F894DEBF8F
:1001D0000FBECDBFDF91CF911F91FF90DF90CF90E9
:1001E0000895CF92DF92FF921F93CF93DF93CDB705
:1001F000DEB72A970FB6F894DEBF0FBECDBFF82E3C
:100200008AE0ECE6F0E0DE01119601900D928A950D
:10021000E1F7CE0101966C011AE1F601419151918D
:100220006F016F2D812F0E9488001A5F1833A9F784
:100230002A960FB6F894DEBF0FBECDBFDF91CF91E7
:100240001F91FF90DF90CF9008956623A9F0C19A87
:10025000C49898E087FF12C0C59AC79A22E02A95F1
:10026000F1F700C0C79822E02A95F1F700C0880F87
:10027000915081F7C49A0895C198EACFC598EDCFFF
:1002800060E00C94250187B3836B87BBC49AC79841
:10029000C09AC0988FE19EE40197F1F700C000007A
:1002A000C09A81E20E9440018FEB0E94400184E0ED
:1002B0000E94400184E10E94400180E20E944001CE
:1002C0008CE00E944001E7EAF0E088EF91E0DF0176
:1002D0009C011D9221503040E1F78AB38C7C8ABB8F
:1002E0008BB383638BBB0E944900D1E092E0D92E8F
:1002F00007EA10E028EFE22EFF24F39429B32095BB
:1003000023738091A6004091A4005091A500A6E718
:10031000B0E0E0EAF0E09D91692F6223C1E009F4CA
:10032000C0E071E0392F382309F470E0C71337C0FB
:100330001082319630E0AA37B30769F78093A600A0
:100340005093A5004093A40080919E0081113EC06F
:100350000E945900882339F080919F00882319F06A
:10036000815080939F0081E00E945900882331F0E2
:1003700080919F00811102C0D0939F0084E00E9471
:100380005900882341F080919F0081111CC0D093B7
:100390009E000E94490085E00E94590021C03081E2
:1003A000323040F0108261110BC0392F3095832319
:1003B000492BBFCF3F5F3083323009F0BACFF2CF45
:1003C000892B592BB6CFD0929E00E3CF85E00E94B7
:1003D0005900882309F451C010929E000E944900E0
:1003E000D801F7011D923197E9F7C0E060E08C2F4A
:1003F0000E946C006FE28C2F0E946C00CF5FC435AE
:10040000A9F7C0E06C2F80E00E946C006C2F83E5A0
:100410000E946C00CF5FC033A9F780919E008111CC
:100420002EC08EE00E94F1008BE10E94BD00809101
:100430009F004AE750E06EE081116BE180E10E948D
:10044000880080E40E94400180E80E94400187EA21
:10045000A82E80E0B82E61E0D5018D915D010E944B
:100460002501BFE9AB16B2E0BB06A9F7EFE1FEE458
:100470003197F1F700C0000041CF84E08DCF81308B
:1004800021F484E10E94F100DCCF84E10E94BD00F0
:06049000D8CFF894FFCF65
:100496007F00890084008E00890084009800930004
:1004A6008E008900840001021020003E1C08003ED8
:1004B600414141227F091929467E1111117E3E4193
:0E04C60049497A3F4040403F2040413F0100FD
:00000001FF
