:100000000C942A000C9447000C9447000C94470071
:100010000C9447000C9447000C9447000C94470044
:100020000C9447000C9447000C9447000C94470034
:100030000C9447000C9447000C9447000C94470024
:100040000C9447000C9447000C9447000C94470014
:100050000C94470011241FBECFE5D4E0DEBFCDBF16
:1000600010E0A0E6B0E0E4E9F3E002C005900D92F4
:10007000AE39B107D9F722E0AEE9B0E001C01D9278
:10008000AE39B207E1F70E94B8000C94C8010C9495
:1000900000008435C8F46033B8F4962F9695969591
:1000A0009695E82FF0E084E5989FE00DF11D11246E
:1000B000EA55FF4F677021E030E001C0220F6A95DA
:1000C000EAF78081822B80830895BF92CF92DF92DE
:1000D000EF92FF920F931F93CF93DF93C82FD62FEA
:1000E0007A0185E0B82EBC0EF701C1907F0110E0C7
:1000F00000E0D12CC601002E02C0959587950A9488
:10010000E2F780FF05C06D2F600F8C2F0E94490021
:100110000F5F1F4F0730110569F7CF5FCB11E4CF99
:10012000DF91CF911F910F91FF90EF90DF90CF90D3
:10013000BF9008956623A9F0C19AC49898E087FFFC
:1001400012C0C59AC79A22E02A95F1F700C0C79855
:1001500022E02A95F1F700C0880F915081F7C49AE8
:100160000895C198EACFC598EDCF60E00C949A004D
:10017000CDB7DEB72C970FB6F894DEBF0FBECDBF5C
:1001800087B3836B87BBC49AC798C09AC0988FE126
:100190009EE40197F1F700C00000C09A81E20E943E
:1001A000B5008FEB0E94B50084E00E94B50084E1A9
:1001B0000E94B50080E20E94B5008CE00E94B5006C
:1001C000E6EAF0E088EF91E0DF019C011D9221500A
:1001D0003040E1F78AB38C7C8ABB8BB383638BBBE3
:1001E00089B3809583738093A5001092A400109228
:1001F000A30010929F001092A0001092A1001092F4
:10020000A20001E07F0198EFC92EDD24D39439B319
:10021000309533738091A5005091A3002091A400E4
:10022000A6E7B0E0EFE9F0E09D91692F632311E0CC
:1002300009F410E071E0482F492309F470E0171326
:1002400093C01082319690E0AA37B90769F780937E
:10025000A5005093A30020FF07C080919E00882333
:1002600019F0815080939E00822F8C7F8093A40090
:1002700021FF06C080919E00811102C000939E0064
:10028000D701F6011D923197E9F710E060E0812F68
:100290000E9449006FE2812F0E9449001F5F1435C0
:1002A000A9F710E0612F80E00E944900612F83E5EB
:1002B0000E9449001F5F1033A9F78AE0E0E6F0E0F2
:1002C000DE01119601900D928A95E1F79E012F5F54
:1002D0003F4F59011AE1D5014D915D915D016EE0ED
:1002E000812F0E9465001A5F1833A9F78CE0EAE6B7
:1002F000F0E0DE01119601900D928A95E1F7FE0182
:1003000031965F0118E1D5014D915D915D016BE181
:10031000812F0E9465001A5F1C33A9F780919E000F
:100320004AE750E06EE081116BE180E10E946500D8
:1003300080E40E94B50080E80E94B50086EAA82EFD
:1003400080E0B82E61E0F50181915F010E949A0082
:10035000FEE9AF16F2E0BF06A9F78FE19EE4019730
:10036000F1F700C0000053CF4081423040F01082CE
:1003700061110BC0492F40958423592B63CF4F5FE8
:100380004083423009F05ECFF2CF892B292B5ACF20
:04039000F894FFCF0F
:10039400980093008E00890084007F008900840007
:1003A4008E008900840001021020003E1C08003EDB
:1003B400414141227F091929467E1111117E3E4196
:0E03C40049497A3F4040403F2040413F010000
:00000001FF
