:100000000C942A000C9447000C9447000C94470071
:100010000C9447000C9447000C9447000C94470044
:100020000C9447000C9447000C9447000C94470034
:100030000C9447000C9447000C9447000C94470024
:100040000C9447000C9447000C9447000C94470014
:100050000C94470011241FBECFE5D4E0DEBFCDBF16
:1000600010E0A0E6B0E0E4E9F3E002C005900D92F4
:10007000A63AB107D9F722E0A6EAB0E001C01D9286
:10008000A63AB207E1F70E94B8000C94C8010C949C
:1000900000008435C8F46033B8F4962F9695969591
:1000A0009695E82FF0E084E5989FE00DF11D11246E
:1000B000E255FF4F677021E030E001C0220F6A95E2
:1000C000EAF78081822B80830895BF92CF92DF92DE
:1000D000EF92FF920F931F93CF93DF93C82FD62FEA
:1000E0007A0185E0B82EBC0EF701C1907F0110E0C7
:1000F00000E0D12CC601002E02C0959587950A9488
:10010000E2F780FF05C06D2F600F8C2F0E94490021
:100110000F5F1F4F0730110569F7CF5FCB11E4CF99
:10012000DF91CF911F910F91FF90EF90DF90CF90D3
:10013000BF9008956623A9F0C19AC49898E087FFFC
:1001400012C0C59AC79A22E02A95F1F700C0C79855
:1001500022E02A95F1F700C0880F915081F7C49AE8
:100160000895C198EACFC598EDCF60E00C949A004D
:10017000CDB7DEB72A970FB6F894DEBF0FBECDBF5E
:1001800087B3836B87BBC49AC798C09AC0988FE126
:100190009EE40197F1F700C00000C09A81E20E943E
:1001A000B5008FEB0E94B50084E00E94B50084E1A9
:1001B0000E94B50080E20E94B5008CE00E94B5006C
:1001C000EEEAF0E088EF91E0DF019C011D92215002
:1001D0003040E1F78AB38C7C8ABB8BB383638BBBE3
:1001E00089B3809583738093AD001092AC00109218
:1001F000AB001092A7001092A8001092A9001092D4
:10020000AA0001E07F0198EFC92EDD24D39439B311
:10021000309533738091AD005091AB002091AC00CC
:10022000A4E7B0E0E7EAF0E09D91692F632311E0D5
:1002300009F410E071E0482F492309F470E0171326
:1002400093C01082319690E0A837B90769F7809380
:10025000AD005093AB0020FF07C08091A60088231B
:1002600019F081508093A600822F8C7F8093AC0080
:1002700021FF06C08091A600811102C00093A60054
:10028000D701F6011D923197E9F710E060E0812F68
:100290000E9449006FE2812F0E9449001F5F1435C0
:1002A000A9F710E0612F80E00E944900612F83E5EB
:1002B0000E9449001F5F1033A9F78AE0E0E6F0E0F2
:1002C000DE01119601900D928A95E1F79E012F5F54
:1002D0003F4F59011AE1D5014D915D915D016EE0ED
:1002E000812F0E9465001A5F1833A9F78AE0EAE6B9
:1002F000F0E0DE01119601900D928A95E1F7FE0182
:1003000031965F011AE1D5014D915D915D016BE17F
:10031000812F0E9465001A5F1833A9F78091A6000B
:1003200048E750E06EE081116BE180E10E946500DA
:1003300080E40E94B50080E80E94B5008EEAA82EF5
:1003400080E0B82E61E0F50181915F010E949A0082
:10035000F6EAAF16F2E0BF06A9F78FE19EE4019737
:10036000F1F700C0000053CF4081423040F01082CE
:1003700061110BC0492F40958423592B63CF4F5FE8
:100380004083423009F05ECFF2CF892B292B5ACF20
:04039000F894FFCF0F
:10039400A0009B00960091008C00870091008200D1
:1003A4007D008C0001021020003E1C080041417FAA
:1003B40041417F4040404026494949327F0919293B
:1003C400467E1111117E3E4149497A3F4040403FEB
:0603D4002040413F010042
:00000001FF
