:100000000C942A000C9447000C9447000C94470071
:100010000C9447000C9447000C9447000C94470044
:100020000C9447000C9447000C9447000C94470034
:100030000C9447000C9447000C9447000C94470024
:100040000C9447000C9447000C9447000C94470014
:100050000C94470011241FBECFE5D4E0DEBFCDBF16
:1000600010E0A0E6B0E0E4ECF3E002C005900D92F1
:10007000AA3CB107D9F722E0AAECB0E001C01D927A
:10008000AA3CB207E1F70E94B8000C94E0010C947E
:1000900000008435C8F46033B8F4962F9695969591
:1000A0009695E82FF0E084E5989FE00DF11D11246E
:1000B000EE52FF4F677021E030E001C0220F6A95D9
:1000C000EAF78081822B80830895BF92CF92DF92DE
:1000D000EF92FF920F931F93CF93DF93C82FD62FEA
:1000E0007A0185E0B82EBC0EF701C1907F0110E0C7
:1000F00000E0D12CC601002E02C0959587950A9488
:10010000E2F780FF05C06D2F600F8C2F0E94490021
:100110000F5F1F4F0730110569F7CF5FCB11E4CF99
:10012000DF91CF911F910F91FF90EF90DF90CF90D3
:10013000BF9008956623A9F0C19AC49898E087FFFC
:1001400012C0C59AC79A22E02A95F1F700C0C79855
:1001500022E02A95F1F700C0880F915081F7C49AE8
:100160000895C198EACFC598EDCF60E00C949A004D
:10017000CDB7DEB72E970FB6F894DEBF0FBECDBF5A
:1001800087B3836B87BBC49AC798C09AC0988FE126
:100190009EE40197F1F700C00000C09A81E20E943E
:1001A000B5008FEB0E94B50084E00E94B50084E1A9
:1001B0000E94B50080E20E94B5008CE00E94B5006C
:1001C000E2EDF0E088EF91E0DF019C011D9221500B
:1001D0003040E1F78AB38C7C8ABB8BB383638BBBE3
:1001E00089B3809583738093D1001092D0001092D0
:1001F000CF001092CB001092CC001092CD00109244
:10020000CE0001E07F0198EFC92EDD24D39439B3ED
:10021000309533738091D1005091CF002091D00060
:10022000A4E8B0E0EBECF0E09D91692F632311E0CE
:1002300009F410E071E0492F482309F470E0171326
:10024000ABC01082319690E0A838B90769F7809367
:10025000D1005093CF0020FF07C08091CA008823AF
:1002600019F081508093CA00822F8C7F8093D00038
:1002700021FF06C08091CA00811102C00093CA000C
:10028000D701F6011D923197E9F710E060E0812F68
:100290000E9449006FE2812F0E9449001F5F1435C0
:1002A000A9F710E0612F80E00E944900612F83E5EB
:1002B0000E9449001F5F1033A9F78CE0E0E6F0E0F0
:1002C000DE01119601900D928A95E1F79E012F5F54
:1002D0003F4F59011AE1D5014D915D915D0169E0F2
:1002E000812F0E9465001A5F1E33A9F78EE0ECE6AD
:1002F000F0E0DE01119601900D928A95E1F7FE0182
:1003000031965F0116E1D5014D915D915D0161E18D
:10031000812F0E9465001A5F1034A9F78AE0EAE78E
:10032000F0E0DE01119601900D928A95E1F7FE0151
:1003300031965F011AE1D5014D915D915D016FE14B
:10034000812F0E9465001A5F1833A9F78091CA00B7
:1003500048E850E06DE081116FE180E10E946500A6
:1003600080E40E94B50080E80E94B50082EDA82ECE
:1003700080E0B82E61E0F50181915F010E949A0052
:10038000FAECAF16F2E0BF06A9F78FE19EE4019701
:10039000F1F700C000003BCF4081423040F01082B6
:1003A00061110BC0492F40958423592B4BCF4F5FD0
:1003B0004083423009F046CFF2CF892B292B42CF20
:0403C000F894FFCFDF
:1003C400AB00A600BA00BF008D00B000C400BF009F
:1003D400BA00B500A10097009C00AB00B5009200E4
:1003E4008D00B00001021020003E1C080041417F36
:1003F40041417F404040407F4141221C3E414141B8
:100404003E7F0204087F7F494949412649494932D0
:100414007F091929467E1111117E3E4149497A3FCF
:0A0424004040403F2040413F0100EE
:00000001FF
