:100000000C942A000C9447000C9447000C94470071
:100010000C9447000C9447000C9447000C94470044
:100020000C9447000C9447000C9447000C94470034
:100030000C9447000C9447000C9447000C94470024
:100040000C9447000C9447000C9447000C94470014
:100050000C94470011241FBECFE5D4E0DEBFCDBF16
:1000600011E0A0E6B0E0E4E3FDE002C005900D92EF
:10007000A232B107D9F723E0A2E2B1E001C01D929C
:10008000A735B207E1F70E9424010C9498060C945E
:10009000000089B380958F7380932B0110922A0101
:1000A00010922901E3E2F1E01082118212821382A0
:1000B00014821582089510925C0110925B011092D7
:1000C0005A0110925E0110925D0181E08093600000
:1000D00092B789B38927209157033091580382271B
:1000E0009327582F5695492F479544274795352FE5
:1000F000342B592F5695482F479544274795252F40
:10010000242B2817390791F18227932790935803BE
:10011000809357030E94F50585E280935901109260
:1001200056011092530110925201E2E3F1E022E5F0
:1001300031E081E08083818382838383848385832C
:100140008683878338962E173F07A1F79BE090930D
:10015000310199E09093300180932F0110922E018C
:1001600010922D018AE080932C01089585EA95EA8A
:10017000CDCF8435C8F46033B8F4962F9695969514
:100180009695E82FF0E084E5989FE00DF11D11248D
:10019000E15AFE4F677021E030E001C0220F6A95FE
:1001A000EAF78081822B80830895CF92DF92EF92CD
:1001B000FF920F931F93CF93DF93C82F7B01D5E05E
:1001C000D80FF701C1907F0110E000E0D12CC601EB
:1001D000002E02C0959587950A94E2F780FF05C02E
:1001E00062E1600F8C2F0E94B9000F5F1F4F073034
:1001F000110569F7CF5FCD13E4CFDF91CF911F9148
:100200000F91FF90EF90DF90CF9008956623A9F0B3
:10021000C19AC49898E087FF12C0C59AC79A22E095
:100220002A95F1F700C0C79822E02A95F1F700C09F
:10023000880F915081F7C49A0895C198EACFC59864
:10024000EDCF60E00C940601CDB7DEB764970FB632
:10025000F894DEBF0FBECDBF87B3836B87BBC49A54
:10026000C798C09AC0988FE19EE40197F1F700C04B
:100270000000C09A81E20E9421018FEB0E942101BF
:1002800084E00E94210184E10E94210180E20E9419
:1002900021018CE00E942101EFE5F1E088EF91E07F
:1002A000DF019C011D9221503040E1F78AB3807C30
:1002B0008ABB8BB38F638BBB83E083BF0E944900F3
:1002C0000E945B0010E01B8A00915C0180915A0142
:1002D000082B09F4C8C03B89311105C00E944900B0
:1002E00010E041E04B8BF2E1DF2EA5EAEA2EA0E020
:1002F000FA2EB8E2CB2E82E0B82E39B330953F7398
:100300005091290180912B0120912A01AFE9B0E0A1
:10031000E3E2F1E09D91692F6323AA24A394611184
:1003200001C0A12C71E0492F482309F470E0A71205
:100330009CC010823196EA16FB0661F780932B0170
:1003400020932A0150932901002309F4AEC0111112
:10035000A0C011E0811110E0AFE1BEE41197F1F708
:1003600000C00000DA94D110C8CF00915C018091E8
:100370005A01082B80915B01082B09F044C1809140
:100380005201882319F081508093520180915601C7
:10039000882309F4E8C0E0905701EA94EA94E092D7
:1003A00057011E140CF0DDC070903101C09058014F
:1003B0000C2C000CDD082601BFEF4B1A5B0AE2E3B0
:1003C000F1E08091300190E030E020E00E2C000C54
:1003D000FF08470143E0840E911C672D70E05F0128
:1003E00050E040E01C01A4E02A0E311CD5016D90C4
:1003F0005D01662009F4CEC0DB011696CA16DB0645
:100400000CF0C8C0641575050CF0C4C0E214F30408
:100410000CF0C0C0881599050CF0BCC0C90163E0A0
:10042000880F991F6A95E1F78E5C9E4F480F591F00
:10043000FA0110821092560184E090E0AC01421B58
:10044000530B9A018AE0829FA001839F500D1124D3
:1004500080915D0190915E01840F951F90935E01E4
:1004600080935D0180C01B8A3ECF4081423040F0C6
:10047000108261110BC0492F40958423592B5ACF0C
:100480004F5F4083423009F055CFF2CF892B292BA3
:1004900051CF10922A01222309F45ECF0E945B0003
:1004A0000E94490010E01B8A57CF922F9F7E9093A5
:1004B0002A0124FF06C090915B0151E0952790939B
:1004C0005B0190915B0130915C01932B30915A015B
:1004D000932B09F041CF90912201992319F091506B
:1004E0009093220190E0AC0155954795559547951D
:1004F000E3E095958795EA95E1F78170942F9170E7
:1005000040FD15C08823A9F030912201311113C09C
:10051000992309F4CBC2811107C08091590182301F
:1005200018F0815080935901B092220104C08823B1
:1005300059F310922201822F8E7C80932A0121721E
:1005400009F40ACF80915601811106CF81E0809392
:100550005601809159018C5F80935801C0925701D8
:10056000FBCE1092560180915301882349F080916F
:1005700054018E5F809354018F32ECF0109253013E
:1005800080912C01811105C18DE0D82E98E0E92ED3
:10059000F12C2CC14F5F5F4F685F7F4F4830510592
:1005A00009F024CF2F5F3F4F38960696243031054F
:1005B00009F013CFD8CF909152019111EDC0409125
:1005C0005501042E000C550B2091590130E0B90162
:1005D000675F7F4F461757070CF0DEC0421753077F
:1005E0000CF4DAC089320CF4D7C010925301809118
:1005F0006000882329F08150809360008111BDC084
:10060000B1E0B0935C01EFE5F1E088EF91E0DF014C
:100610009C011D9221503040E1F700E060E0802F06
:100620000E94B9006FE2802F0E94B9000F5F04356D
:10063000A9F700E0602F80E00E94B900602F83E5F9
:100640000E94B9000F5F0033A9F74AE0BE016F5F57
:100650007F4F80915D0190915E010E940006912C78
:1006600007E0B5E08B2EE1E0F0E0EC0FFD1FE90DB7
:10067000F11D8081811153C1F2E36F2EF1E07F2ED5
:10068000412C512C4301D4018D914D01811176C132
:10069000B8E05B0EE0E45E12F6CF28E0620E711C5B
:1006A00036E0430E48E14412ECCF8091520188239A
:1006B00009F497C180FF95C180915601882391F07C
:1006C00000915701F0905801602F8F2D0E94B900C2
:1006D00061E0600F8F2D0E94B90062E0600F8F2DE6
:1006E0000E94B90080915301882391F00091540138
:1006F000F0905501602F8F2D0E94B90061E0600FCE
:100700008F2D0E94B90062E0600F8F2D0E94B9000A
:1007100080915C01882309F490C182E1E5E6F0E074
:10072000DE01119601900D928A95E1F79E012F5FEF
:100730003F4F79010CE0D7016D917D917D01802FB4
:100740000E94D5000A5F0234B1F780E40E942101C3
:1007500080E80E9421012FE5E22E21E0F22E37E50C
:10076000C32E33E0D32E61E0F70181917F010E9417
:100770000601CE14DF04B9F7A7CD88E080935201BB
:100780001092560185E2809359018AE080932C01F2
:10079000F7CE815080932C0142E351E062E571E095
:1007A000CA01FC0128E0319131110F5F2150D9F7C6
:1007B000089668177907A9F7011141C051E05093D5
:1007C0005A0121CF0E94F005B7010E9460059927C8
:1007D000FC01EE5CFE4F43E050E0208D21110AC089
:1007E0004150510938974F3F5407B9F7DA94D11067
:1007F000E9CF1DC02091310133E0880F991F3A9550
:10080000E1F7820F911D2091300196E0949FB00195
:10081000959F700D1124260F372F311D41E0409315
:1008200053018D5F809355012C5F209354010E94EA
:10083000F0056CE070E00E9460058A5FABCF93E04A
:10084000093120F492E0093008F491E080912E0102
:100850008F5F891718F480932E01D5CE10922E0148
:10086000F0E090E060E030E02FEFDA0180E07D9191
:10087000772351F0821708F4282F981708F4982F3F
:10088000F31708F4F32F61E08F5F883081F73F5F43
:10089000485F5F4F343049F7662309F48FCFA0914A
:1008A00031016A2F70E0E0912F014E2F0E2E000CC7
:1008B000550B88E0289F90011124260F371F240F25
:1008C000351F1216130664F4B8E09B9FC001112473
:1008D000860F971F0596840F951F83359105DCF0D1
:1008E000E195E0932F01809130018E5F809330017C
:1008F00080912D01E1E08E2780932D0180913001C0
:1009000046E0F49F90011124820F932F911D889748
:100910000CF479CE75CEEA0FE0933101E9CF805324
:100920008A3018F093940A5F9ECE889DC0011124EE
:10093000AC0140515F4F7A01ABEF7A2E700ED701B8
:10094000CD907D01B12CA12CD12CC6010A2C02C066
:10095000959587950A94E2F780FF05C062E06A0DDD
:10096000872D0E94B900BFEFAB1ABB0AE7E0AE16B5
:10097000B10459F773947012E2CFD4CF00913101D2
:10098000050D80913001840D8C8B80912D0181119A
:1009900025C087E990E07C01312C0B5FD701AD9039
:1009A0007D01E5E0CE2ED12CB12C2C88230CC50185
:1009B0000C2C02C0969587950A94E2F780FF05C03B
:1009C000622D802F8C190E94B900B1E0CB1AD1089A
:1009D00070F73394F4E03F12E1CF5ACE8BE990E008
:1009E000DACF809159015FE8C52E50E0D52E0BE299
:1009F000AA24A394B12C78E0772E780ED6018D909E
:100A00009D906D0148E0E42EF12CC5010E2C02C032
:100A1000880F991F0A94E2F788219921892B29F0E0
:100A2000602F872D8E190E94B900B1E0EB1AF108F2
:100A300060F70F5F0F3211F73FCE80915A01882384
:100A4000C1F08EE0E7E7F0E0DE01119601900D9233
:100A50008A95E1F7FE0131967F0105E1D7016D919D
:100A60007D917D01802F0E94D5000A5F0F33B1F781
:100A70006CCE80915B01882309F467CE8AE0E5E8BB
:100A8000F0E0DE01119601900D928A95E1F7FE01EA
:100A900031967F010BE1D7016D917D917D01802F12
:100AA0000E94D5000A5F0933B1F74FCE882309F4BD
:100AB0003BCD809159018A3408F036CD8F5F32CD1D
:100AC00097FB072E16F4009407D077FD09D00E94FB
:100AD000740507FC05D03EF4909581959F4F0895CD
:100AE000709561957F4F0895AA1BBB1B51E107C00C
:100AF000AA1FBB1FA617B70710F0A61BB70B881FAE
:100B0000991F5A95A9F780959095BC01CD0108953C
:100B1000CF92DF92EF92FF92CF93DF93CDB7DEB704
:100B20002A970FB6F894DEBF0FBECDBF89879A878C
:100B3000A985BA852D913D914D915C9129833A8388
:100B40004B835C83232B242B252B41F424E239EDAA
:100B50004BE557E029833A834B835C8369817A8133
:100B60008B819C812DE133EF41E050E00E943506FE
:100B700069017A01A7EAB1E49B01AC010E94540625
:100B800069837A838B839C83ACEEB4EFA7019601D3
:100B90000E9462069B01AC0189819A81AB81BC8174
:100BA000820F931FA41FB51FB7FF03C00197A109B0
:100BB000B048E985FA8580839183A283B3839F77C8
:100BC0002A960FB6F894DEBF0FBECDBFDF91CF914E
:100BD000FF90EF90DF90CF9008950E9488050895D0
:100BE00081E690E00E9488050895B0E0A0E080933F
:100BF000610090936200A0936300B0936400089535
:100C0000BB274A3031F4992322F4BDE290958195B7
:100C10009F4F0C940C06BB27FB015527AA27880F72
:100C2000991FAA1FA41710F0A41B83955051B9F760
:100C3000A05DAA3308F0A95DA193009779F7B111DF
:100C4000B1931192CB010C942506DC01FC01672FB6
:100C500071917723E1F7329704C07C916D93708393
:100C60006291AE17BF07C8F30895052E97FB1EF4D7
:100C700000940E944C0657FD07D00E94670607FCAF
:100C800003D04EF40C944C06509540953095219528
:100C90003F4F4F4F5F4F08959095809570956195A8
:100CA0007F4F8F4F9F4F08950E948906A59F900DFB
:100CB000B49F900DA49F800D911D11240895B7FF3E
:100CC0000C9454060E945406821B930B0895A1E2D3
:100CD0001A2EAA1BBB1BFD010DC0AA1FBB1FEE1FB6
:100CE000FF1FA217B307E407F50720F0A21BB30B01
:100CF000E40BF50B661F771F881F991F1A9469F77D
:100D000060957095809590959B01AC01BD01CF01D8
:100D10000895A29FB001B39FC001A39F700D811DD4
:100D20001124911DB29F700D811D1124911D0895F4
:040D3000F894FFCF65
:100D34000301000000EB00E600E100DC00C800D77E
:100D440000D200DC00CD00B400D700BE00C800AF64
:100D540000AA00A500C300E600BE00B900DC001034
:100D64000038007C00FF011E2D3F121E2D3F210183
:100D740002040810207F0204087F41417F41417F23
:100D84002018207F030478040326494949323F4050
:100D940040403F7F0909090600000000007F09194F
:100DA40029461F2040201F3E4141413E7F49494979
:100DB400417F0204027F7E1111117E3E4149497A2E
:100DC4003E5149453E00427F40004261514946211F
:100DD40041454B311814127F1027454545393C4A8B
:100DE40049493001710905033649494936064949DB
:020DF400291EB6
:00000001FF
