:100000000C942A000C9447000C9447000C94470071
:100010000C9447000C9447000C9447000C94470044
:100020000C9447000C9447000C9447000C94470034
:100030000C9447000C9447000C9447000C94470024
:100040000C9447000C9447000C9447000C94470014
:100050000C94470011241FBECFE5D4E0DEBFCDBF16
:1000600010E0A0E6B0E0E2E8F9E002C005900D92F1
:10007000A03DB107D9F723E0A0EDB0E001C01D928B
:10008000A235B207E1F70E946E010C94BF040C94F4
:10009000000020B330E0A90102C0559547958A952C
:1000A000E2F7CA0180959095817008958435D8F45F
:1000B0006033C8F4962F969596959695E82FF0E0C4
:1000C00084E5989FE00DF11D1124E65AFE4F208132
:1000D000677081E090E001C0880F6A95EAF74423D9
:1000E00019F0822B8083089580958223FBCF0F9394
:1000F0001F93CF93DF93C82F162F04E0080FD0E093
:10010000612F6D0F41E08C2F0E945600DF5FD430CD
:10011000B9F7CF5FC013F3CFDF91CF911F910F914C
:100120000895BF92CF92DF92EF92FF920F931F93A9
:10013000CF93DF93D091D700B090D80001EF13E0B8
:1001400025E1E22EF12C3CE0C32ED12C0150110907
:10015000A9F401EF13E085E1E82EF12C9CE0C92E13
:10016000D12C0150110979F5DF91CF911F910F9199
:10017000FF90EF90DF90CF90BF9008950E941704FA
:10018000B7010E948703C82F0E941704B6010E947E
:100190008703DC1761F02091D900EAEDF0E090E0F0
:1001A000921308C0C093D7008093D800DDCFB81257
:1001B000F2CFCCCF3081C31303C03181831731F22A
:1001C0009F5F3296EDCF0E941704B7010E9487030C
:1001D000C82F0E941704B6010E9487032091D900FE
:1001E000EAEDF0E090E09217E9F23081C31304C029
:1001F0003181831709F4B5CF9F5F3296F4CF83E046
:100200008093D9001092D1001092D0001092D200A9
:100210008AE08093DA0086E08093DB0099E0909397
:10022000DC008093DD0098E09093DE008093DF0097
:1002300083E090E09093D6008093D5009093D40013
:100240008093D3008FEF8093D7008093D80092B72C
:1002500080B389272091520330915303822793273B
:10026000582F5695492F479544274795352F342BBE
:10027000592F5695482F479544274795252F242BCE
:100280002817390751F082279327909353038093BF
:1002900052030E941C040C94910085EA95EAF5CF64
:1002A0006623A9F0C19AC49898E087FF12C0C59A46
:1002B000C79A22E02A95F1F700C0C79822E02A9554
:1002C000F1F700C0880F915081F7C49A0895C19842
:1002D000EACFC598EDCF60E00C945001CDB7DEB702
:1002E00063970FB6F894DEBF0FBECDBF87B3836BA5
:1002F00087BBC49AC798C09AC0988FE19EE40197C3
:10030000F1F700C00000C09A81E20E946B018FEB00
:100310000E946B0184E00E946B0184E10E946B01EA
:1003200080E20E946B018CE00E946B01EAE5F1E043
:1003300088EF91E0DF019C011D9221503040E1F7F0
:1003400081B3807F81BB82B38F6082BB83E083BF38
:100350000E94FF0072E0472E512C66246394712C9A
:10036000F2E58F2EF3E09F2E80E00E944900882363
:1003700009F4CCC08091D5009091D600019709F482
:10038000C5C01092D4001092D3005091D2005111E8
:1003900047C12091D3003091D4003093D6002093F0
:1003A000D5009091DA008091DB002230310509F40C
:1003B00017C108F0DFC0232B09F00DC1811109C15D
:1003C00081E08093D200EAE5F1E028EF31E011927C
:1003D00021503040E1F710E041E060E0812F0E94C1
:1003E000560041E06FE2812F0E9456001F5F1435D6
:1003F00099F710E041E0612F80E00E94560041E053
:10040000612F83E50E9456001F5F103399F76091BA
:10041000D800660F660F8091D700880F880F0E9462
:10042000770010E08091D900181708F41AC14AE04B
:10043000BE016F5F7F4F8091D0009091D1000E94EC
:10044000270427E0B22E312CE1E0F0E0EC0FFD1F95
:10045000E30DF11D008101112AC18091D200882392
:10046000D1F182E1E4E6F0E0DE01119601900D9217
:100470008A95E1F79E012F5F3F4F69018CE0382E8E
:10048000D601AD90BD906D01232CB5E0B30DBB8BB3
:10049000F501E1905F0110E000E0F12CC701002EB2
:1004A00002C0959587950A94E2F780FF06C041E067
:1004B00062E1600F822D0E9456000F5F1F4F0730D0
:1004C000110561F72394FB892F12E2CF26E0320E4B
:1004D00032E43312D5CF80E40E946B0180E80E94A1
:1004E0006B010AE511E061E0D8018D918D010E9458
:1004F000500180169106B9F7BFEFE4E6F4E0B15081
:10050000E040F040E1F700C000002ECF81E00E9403
:100510004900882359F08091D5009091D600892B0D
:1005200029F07092D4006092D3002FCF82E00E9415
:100530004900882359F08091D5009091D600039707
:1005400029F05092D4004092D3001FCF83E00E9444
:100550004900882309F419CF8091D5009091D600E5
:10056000029709F412CF83E090E09093D400809337
:10057000D3000BCF23303105C1F14091D900EAED12
:10058000F0E0541337C0542FE42FF0E0EE0FFF1FBC
:10059000E652FF4F511138C09093DA008093DB0090
:1005A0002091D70092130FCF9091D80089130BCFD1
:1005B0004F3318F44F5F4093D9008091D000909151
:1005C000D10001969093D1008093D0000E949100B9
:1005D000FACE8150D2CF8B3008F0F2CE8F5FCDCFE4
:1005E000992309F4EDCE9150C8CF943108F0E8CEAC
:1005F0009F5FC3CF2081291304C02181281709F4EC
:10060000DFCE5F5F3296BDCFDF011297503429F005
:100610002D913C911197318320835150FD01BACF28
:1006200080E00E944900882361F09FEFA1EEB4E0D2
:100630009150A040B040E1F700C000000E94FF00D0
:10064000C2CE81E00E9449008111EFCF82E00E947A
:1006500049008111EACF83E00E9449008111E5CF72
:10066000B2CE111115C00091DB00000F000FF09009
:10067000DA00FF0CFF0C602F8F2D0E94770061E0E5
:10068000600F40E081E08F0D0E9456001F5FCACED0
:10069000E12FF0E0EE0FFF1FE652FF4F6181660F82
:1006A000660F8081880F880F0E947700EFCF00537C
:1006B0000A3020F0339436E0B30EC6CE85E0089FB2
:1006C0008001112402561F4F9BEFA92EAB0CD801BD
:1006D000CD908D01F12CE12CD12CC6010E2C02C045
:1006E000959587950A94E2F780FF06C041E062E0A5
:1006F0006E0D8A2D0E945600BFEFEB1AFB0AE7E051
:10070000EE16F10451F7A394BA10E1CFD3CF97FBC3
:10071000072E16F4009407D077FD09D00E949B03A2
:1007200007FC05D03EF4909581959F4F08957095F4
:1007300061957F4F0895AA1BBB1B51E107C0AA1FFB
:10074000BB1FA617B70710F0A61BB70B881F991F72
:100750005A95A9F780959095BC01CD010895CF9247
:10076000DF92EF92FF92CF93DF93CDB7DEB72A9758
:100770000FB6F894DEBF0FBECDBF89879A87A985D3
:10078000BA852D913D914D915C9129833A834B839C
:100790005C83232B242B252B41F424E239ED4BE5FC
:1007A00057E029833A834B835C8369817A818B810B
:1007B0009C812DE133EF41E050E00E945C0469012F
:1007C0007A01A7EAB1E49B01AC010E947B04698332
:1007D0007A838B839C83ACEEB4EFA70196010E94D1
:1007E00089049B01AC0189819A81AB81BC81820F14
:1007F000931FA41FB51FB7FF03C00197A109B048FD
:10080000E985FA8580839183A283B3839F772A96B3
:100810000FB6F894DEBF0FBECDBFDF91CF91FF9032
:10082000EF90DF90CF9008950E94AF03089580E687
:1008300090E00E94AF030895B0E0A0E080936000D4
:1008400090936100A0936200B09363000895BB276A
:100850004A3031F4992322F4BDE2909581959F4F5F
:100860000C943304BB27FB015527AA27880F991F37
:10087000AA1FA41710F0A41B83955051B9F7A05DCF
:10088000AA3308F0A95DA193009779F7B111B1934C
:100890001192CB010C944C04DC01FC01672F719187
:1008A0007723E1F7329704C07C916D937083629156
:1008B000AE17BF07C8F30895052E97FB1EF40094EA
:1008C0000E94730457FD07D00E948E0407FC03D0DA
:1008D0004EF40C94730450954095309521953F4FFC
:1008E0004F4F5F4F089590958095709561957F4F1C
:1008F0008F4F9F4F08950E94B004A59F900DB49F05
:10090000900DA49F800D911D11240895B7FF0C94A4
:100910007B040E947B04821B930B0895A1E21A2E94
:10092000AA1BBB1BFD010DC0AA1FBB1FEE1FFF1F93
:10093000A217B307E407F50720F0A21BB30BE40BE3
:10094000F50B661F771F881F991F1A9469F760952A
:100950007095809590959B01AC01BD01CF010895E4
:10096000A29FB001B39FC001A39F700D811D1124F0
:10097000911DB29F700D811D1124911D0895F89451
:02098000FFCFA7
:1009820001000000990094008F008A007600850023
:1009920080008A007B0000000000007F09192946C0
:1009A2001F2040201F3E4141413E7F494949417F2E
:1009B2000204027F7E1111117E3E4149497A3E5165
:1009C20049453E00427F400042615149462141452E
:1009D2004B311814127F1027454545393C4A494985
:1009E2003001710905033649494936064949291E2C
:00000001FF
