:100000000C942A000C943F000C943F000C943F0089
:100010000C943F000C943F000C943F000C943F0064
:100020000C943F000C943F000C943F000C943F0054
:100030000C943F000C943F000C943F000C943F0044
:100040000C943F000C943F000C943F000C943F0034
:100050000C943F0011241FBECFE5D8E0DEBFCDBF1A
:1000600010E0A0E6B0E0E6EDF0E002C005900D92F1
:10007000AA36B107D9F70E9459000C9469000C9474
:10008000000010BC83E389B988E08AB986E880BDA6
:1000900008955D9BFECF8CB90895CF93DF93EC015B
:1000A0008991811103C0DF91CF9108950E94490089
:1000B000F7CF0E94410080E690E00E944D002FEFB4
:1000C00089E698E1215080409040E1F700C00000AF
:0600D000F2CFF894FFCF0F
:0A00D60055415254204F4B0D0A0013
:00000001FF
