:100000000C942A000C943C000C943C000C943C0092
:100010000C943C000C943C000C943C000C943C0070
:100020000C943C000C943C000C943C000C943C0060
:100030000C943C000C943C000C943C000C943C0050
:100040000C943C000C943C000C943C000C943C0040
:100050000C943C0011241FBECFE5D4E0DEBFCDBF21
:1000600022E0A0E6B0E001C01D92A036B207E1F7A1
:100070000E9491000C94CB010C94000080E28093CC
:100080005D021092580210925F028CE480935E022F
:1000900089E080935B0210925C0210925A021092E7
:1000A000590208958435D8F46033C8F4962F969594
:1000B00096959695E82FF0E084E5989FE00DF11D68
:1000C0001124E05AFF4F2081677081E090E001C069
:1000D000880F6A95EAF7442319F0822B80830895EC
:1000E00080958223FBCF6623A9F0C19AC49898E03B
:1000F00087FF12C0C59AC79A22E02A95F1F700C07F
:10010000C79822E02A95F1F700C0880F915081F737
:10011000C49A0895C198EACFC598EDCF60E00C94D9
:10012000730087B3836B87BBC49AC798C09AC09883
:100130008FE19EE40197F1F700C00000C09A81E2D0
:100140000E948E008FEB0E948E0084E00E948E0041
:1001500084E10E948E0080E20E948E008CE00E946A
:100160008E00E0E6F0E088EF91E0DF019C011D9257
:1001700021503040E1F78AB3807E8ABB82B38F6121
:1001800082BB0E943E0053E0E52EF12C60E6462E35
:1001900060E0562E08E512E070E5C72ED12C809164
:1001A0005C02882309F46CC0CC9B0E943E00D20103
:1001B000E8EFF1E01D923197E9F7E4E0F2E0C0E604
:1001C000D0E08191DF01119781608C930E171F079A
:1001D000C1F730905D02932C4AE0842EA32CB12C01
:1001E000F8E0AF0EB11C9A141B040CF4A3C0839466
:1001F00020E18212A6C060915D026E5F40E08EE059
:100200000E94520080915B0238E2732E781A30907F
:100210005E02832C912C35E0830E911CA72DA80F34
:10022000BB27BB1F5D01381419040CF497C08091E3
:10023000590290915A02B6010E94B70122E0922E13
:100240005C01BFEFAB1ABB0A9A141B0409F00CF453
:1002500087C080E40E948E0080E80E948E0061E0EA
:1002600089910E9473000C171D07C9F7EFEFF3EF98
:1002700021E0E150F0402040E1F700C000008FCFC6
:1002800089B3817090915F02892B31F43BEF3093F9
:10029000580281E080935F029091580280915D0244
:1002A000890F80935D029F5F90935802803238F0EF
:1002B00090E290935D021092580210925F0280913A
:1002C0005E0282508B3FECF080935E0280915E0272
:1002D000813108F06CCF8B5F8A3008F468CF809151
:1002E0005D0228E0280F90915B02F8E2F91B2F17BE
:1002F00008F45DCF893208F05ACF21E020935C02E8
:1003000056CFA3E5A0935E028091590290915A02C4
:10031000019690935A0280935902B7010E94B70147
:10032000892B21F4BCE0B0935B02D0CFE9E0E093ED
:100330005B02CCCF41E0692D882D0E94520093943E
:1003400052CF932C50CF41E0622D832D0E9452005A
:1003500023942A141B04BCF3339465CF272CF9CFC4
:1003600041E062E0892D0E94520093946DCFAA1B58
:10037000BB1B51E107C0AA1FBB1FA617B70710F090
:10038000A61BB70B881F991F5A95A9F780959095C2
:0A039000BC01CD010895F894FFCFE1
:00000001FF
